{
	"contracts/DataStorage.sol": {
		"DataStorage": {
			"abi": [
				{
					"inputs": [],
					"name": "AccessControlOnly",
					"type": "error"
				},
				{
					"inputs": [],
					"name": "DataNotRegistered",
					"type": "error"
				},
				{
					"inputs": [],
					"name": "DataReferenceCannotBeEmpty",
					"type": "error"
				},
				{
					"inputs": [],
					"name": "InvalidInitialization",
					"type": "error"
				},
				{
					"inputs": [],
					"name": "NotAuthorized",
					"type": "error"
				},
				{
					"inputs": [],
					"name": "NotInitializing",
					"type": "error"
				},
				{
					"inputs": [],
					"name": "SampleAlreadyRegistered",
					"type": "error"
				},
				{
					"anonymous": false,
					"inputs": [
						{
							"indexed": true,
							"internalType": "address",
							"name": "patient",
							"type": "address"
						},
						{
							"indexed": true,
							"internalType": "uint256",
							"name": "sampleId",
							"type": "uint256"
						}
					],
					"name": "DataRegistered",
					"type": "event"
				},
				{
					"anonymous": false,
					"inputs": [
						{
							"indexed": true,
							"internalType": "address",
							"name": "patient",
							"type": "address"
						},
						{
							"indexed": true,
							"internalType": "uint256",
							"name": "sampleId",
							"type": "uint256"
						}
					],
					"name": "DataUpdated",
					"type": "event"
				},
				{
					"anonymous": false,
					"inputs": [
						{
							"indexed": false,
							"internalType": "uint64",
							"name": "version",
							"type": "uint64"
						}
					],
					"name": "Initialized",
					"type": "event"
				},
				{
					"inputs": [],
					"name": "accessControlContract",
					"outputs": [
						{
							"internalType": "address",
							"name": "",
							"type": "address"
						}
					],
					"stateMutability": "view",
					"type": "function"
				},
				{
					"inputs": [
						{
							"internalType": "uint256",
							"name": "_sampleId",
							"type": "uint256"
						}
					],
					"name": "getData",
					"outputs": [
						{
							"internalType": "string",
							"name": "",
							"type": "string"
						}
					],
					"stateMutability": "view",
					"type": "function"
				},
				{
					"inputs": [
						{
							"internalType": "address",
							"name": "_patient",
							"type": "address"
						}
					],
					"name": "getSampleIdsByPatient",
					"outputs": [
						{
							"internalType": "uint256[]",
							"name": "",
							"type": "uint256[]"
						}
					],
					"stateMutability": "view",
					"type": "function"
				},
				{
					"inputs": [
						{
							"internalType": "address",
							"name": "_accessControlContract",
							"type": "address"
						}
					],
					"name": "initialize",
					"outputs": [],
					"stateMutability": "nonpayable",
					"type": "function"
				},
				{
					"inputs": [
						{
							"internalType": "string",
							"name": "_dataReference",
							"type": "string"
						}
					],
					"name": "registerData",
					"outputs": [],
					"stateMutability": "nonpayable",
					"type": "function"
				},
				{
					"inputs": [
						{
							"internalType": "uint256",
							"name": "",
							"type": "uint256"
						}
					],
					"name": "sampleIdToPatient",
					"outputs": [
						{
							"internalType": "address",
							"name": "",
							"type": "address"
						}
					],
					"stateMutability": "view",
					"type": "function"
				},
				{
					"inputs": [
						{
							"internalType": "uint256",
							"name": "_sampleId",
							"type": "uint256"
						},
						{
							"internalType": "string",
							"name": "_dataReference",
							"type": "string"
						}
					],
					"name": "updateData",
					"outputs": [],
					"stateMutability": "nonpayable",
					"type": "function"
				}
			],
			"devdoc": {
				"details": "Patients can register and update their genetic data, and authorized contracts can retrieve the data.",
				"errors": {
					"InvalidInitialization()": [
						{
							"details": "The contract is already initialized."
						}
					],
					"NotInitializing()": [
						{
							"details": "The contract is not initializing."
						}
					]
				},
				"events": {
					"DataRegistered(address,uint256)": {
						"params": {
							"patient": "The address of the patient registering the data.",
							"sampleId": "The unique identifier of the genetic sample."
						}
					},
					"DataUpdated(address,uint256)": {
						"params": {
							"patient": "The address of the patient updating the data.",
							"sampleId": "The unique identifier of the genetic sample."
						}
					},
					"Initialized(uint64)": {
						"details": "Triggered when the contract has been initialized or reinitialized."
					}
				},
				"kind": "dev",
				"methods": {
					"getData(uint256)": {
						"details": "Only callable by the AccessControl contract.",
						"params": {
							"_sampleId": "The unique identifier of the genetic sample."
						},
						"returns": {
							"_0": "The genetic data reference string."
						}
					},
					"getSampleIdsByPatient(address)": {
						"params": {
							"_patient": "The address of the patient."
						},
						"returns": {
							"_0": "An array of sample IDs owned by the patient."
						}
					},
					"initialize(address)": {
						"params": {
							"_accessControlContract": "The address of the deployed AccessControl contract."
						}
					},
					"registerData(string)": {
						"details": "The sample ID must not have been registered before.",
						"params": {
							"_dataReference": "The reference to the genetic data (e.g., IPFS hash)."
						}
					},
					"updateData(uint256,string)": {
						"details": "Only the owner of the sample can update its data.",
						"params": {
							"_dataReference": "The new reference to the genetic data.",
							"_sampleId": "The unique identifier of the genetic sample."
						}
					}
				},
				"title": "DataStorage Contract",
				"version": 1
			},
			"evm": {
				"assembly": "    /* \"contracts/DataStorage.sol\":367:5573  contract DataStorage is Initializable {... */\n  mstore(0x40, 0x80)\n  callvalue\n  dup1\n  iszero\n  tag_1\n  jumpi\n  0x00\n  dup1\n  revert\ntag_1:\n  pop\n  dataSize(sub_0)\n  dup1\n  dataOffset(sub_0)\n  0x00\n  codecopy\n  0x00\n  return\nstop\n\nsub_0: assembly {\n        /* \"contracts/DataStorage.sol\":367:5573  contract DataStorage is Initializable {... */\n      mstore(0x40, 0x80)\n      callvalue\n      dup1\n      iszero\n      tag_1\n      jumpi\n      0x00\n      dup1\n      revert\n    tag_1:\n      pop\n      jumpi(tag_2, lt(calldatasize, 0x04))\n      shr(0xe0, calldataload(0x00))\n      dup1\n      0x970d0513\n      gt\n      tag_10\n      jumpi\n      dup1\n      0x970d0513\n      eq\n      tag_6\n      jumpi\n      dup1\n      0xc4d66de8\n      eq\n      tag_7\n      jumpi\n      dup1\n      0xc8f11ee1\n      eq\n      tag_8\n      jumpi\n      dup1\n      0xd43c9971\n      eq\n      tag_9\n      jumpi\n      jump(tag_2)\n    tag_10:\n      dup1\n      0x0178fe3f\n      eq\n      tag_3\n      jumpi\n      dup1\n      0x21fcc185\n      eq\n      tag_4\n      jumpi\n      dup1\n      0x89a8e2a7\n      eq\n      tag_5\n      jumpi\n    tag_2:\n      0x00\n      dup1\n      revert\n        /* \"contracts/DataStorage.sol\":5236:5571  function getData(uint256 _sampleId)... */\n    tag_3:\n      tag_11\n      0x04\n      dup1\n      calldatasize\n      sub\n      dup2\n      add\n      swap1\n      tag_12\n      swap2\n      swap1\n      tag_13\n      jump\t// in\n    tag_12:\n      tag_14\n      jump\t// in\n    tag_11:\n      mload(0x40)\n      tag_15\n      swap2\n      swap1\n      tag_16\n      jump\t// in\n    tag_15:\n      mload(0x40)\n      dup1\n      swap2\n      sub\n      swap1\n      return\n        /* \"contracts/DataStorage.sol\":1550:1586  address public accessControlContract */\n    tag_4:\n      tag_17\n      tag_18\n      jump\t// in\n    tag_17:\n      mload(0x40)\n      tag_19\n      swap2\n      swap1\n      tag_20\n      jump\t// in\n    tag_19:\n      mload(0x40)\n      dup1\n      swap2\n      sub\n      swap1\n      return\n        /* \"contracts/DataStorage.sol\":4512:4975  function updateData(uint256 _sampleId, string calldata _dataReference)... */\n    tag_5:\n      tag_21\n      0x04\n      dup1\n      calldatasize\n      sub\n      dup2\n      add\n      swap1\n      tag_22\n      swap2\n      swap1\n      tag_23\n      jump\t// in\n    tag_22:\n      tag_24\n      jump\t// in\n    tag_21:\n      stop\n        /* \"contracts/DataStorage.sol\":1305:1357  mapping(uint256 => address) public sampleIdToPatient */\n    tag_6:\n      tag_25\n      0x04\n      dup1\n      calldatasize\n      sub\n      dup2\n      add\n      swap1\n      tag_26\n      swap2\n      swap1\n      tag_13\n      jump\t// in\n    tag_26:\n      tag_27\n      jump\t// in\n    tag_25:\n      mload(0x40)\n      tag_28\n      swap2\n      swap1\n      tag_20\n      jump\t// in\n    tag_28:\n      mload(0x40)\n      dup1\n      swap2\n      sub\n      swap1\n      return\n        /* \"contracts/DataStorage.sol\":2880:3116  function initialize(address _accessControlContract) public initializer {... */\n    tag_7:\n      tag_29\n      0x04\n      dup1\n      calldatasize\n      sub\n      dup2\n      add\n      swap1\n      tag_30\n      swap2\n      swap1\n      tag_31\n      jump\t// in\n    tag_30:\n      tag_32\n      jump\t// in\n    tag_29:\n      stop\n        /* \"contracts/DataStorage.sol\":3692:4232  function registerData(string calldata _dataReference)... */\n    tag_8:\n      tag_33\n      0x04\n      dup1\n      calldatasize\n      sub\n      dup2\n      add\n      swap1\n      tag_34\n      swap2\n      swap1\n      tag_35\n      jump\t// in\n    tag_34:\n      tag_36\n      jump\t// in\n    tag_33:\n      stop\n        /* \"contracts/DataStorage.sol\":3303:3473  function getSampleIdsByPatient(address _patient)... */\n    tag_9:\n      tag_37\n      0x04\n      dup1\n      calldatasize\n      sub\n      dup2\n      add\n      swap1\n      tag_38\n      swap2\n      swap1\n      tag_31\n      jump\t// in\n    tag_38:\n      tag_39\n      jump\t// in\n    tag_37:\n      mload(0x40)\n      tag_40\n      swap2\n      swap1\n      tag_41\n      jump\t// in\n    tag_40:\n      mload(0x40)\n      dup1\n      swap2\n      sub\n      swap1\n      return\n        /* \"contracts/DataStorage.sol\":5236:5571  function getData(uint256 _sampleId)... */\n    tag_14:\n        /* \"contracts/DataStorage.sol\":5345:5358  string memory */\n      0x60\n        /* \"contracts/DataStorage.sol\":2611:2632  accessControlContract */\n      0x04\n      0x00\n      swap1\n      sload\n      swap1\n      0x0100\n      exp\n      swap1\n      div\n      0xffffffffffffffffffffffffffffffffffffffff\n      and\n        /* \"contracts/DataStorage.sol\":2597:2632  msg.sender != accessControlContract */\n      0xffffffffffffffffffffffffffffffffffffffff\n      and\n        /* \"contracts/DataStorage.sol\":2597:2607  msg.sender */\n      caller\n        /* \"contracts/DataStorage.sol\":2597:2632  msg.sender != accessControlContract */\n      0xffffffffffffffffffffffffffffffffffffffff\n      and\n      eq\n        /* \"contracts/DataStorage.sol\":2593:2685  if (msg.sender != accessControlContract) {... */\n      tag_43\n      jumpi\n        /* \"contracts/DataStorage.sol\":2655:2674  AccessControlOnly() */\n      mload(0x40)\n      0x57b865e000000000000000000000000000000000000000000000000000000000\n      dup2\n      mstore\n      0x04\n      add\n      mload(0x40)\n      dup1\n      swap2\n      sub\n      swap1\n      revert\n        /* \"contracts/DataStorage.sol\":2593:2685  if (msg.sender != accessControlContract) {... */\n    tag_43:\n        /* \"contracts/DataStorage.sol\":5374:5401  string memory dataReference */\n      0x00\n        /* \"contracts/DataStorage.sol\":5404:5425  geneticDataBySampleId */\n      dup1\n        /* \"contracts/DataStorage.sol\":5404:5436  geneticDataBySampleId[_sampleId] */\n      0x00\n        /* \"contracts/DataStorage.sol\":5426:5435  _sampleId */\n      dup5\n        /* \"contracts/DataStorage.sol\":5404:5436  geneticDataBySampleId[_sampleId] */\n      dup2\n      mstore\n      0x20\n      add\n      swap1\n      dup2\n      mstore\n      0x20\n      add\n      0x00\n      keccak256\n        /* \"contracts/DataStorage.sol\":5374:5436  string memory dataReference = geneticDataBySampleId[_sampleId] */\n      dup1\n      sload\n      tag_45\n      swap1\n      tag_46\n      jump\t// in\n    tag_45:\n      dup1\n      0x1f\n      add\n      0x20\n      dup1\n      swap2\n      div\n      mul\n      0x20\n      add\n      mload(0x40)\n      swap1\n      dup2\n      add\n      0x40\n      mstore\n      dup1\n      swap3\n      swap2\n      swap1\n      dup2\n      dup2\n      mstore\n      0x20\n      add\n      dup3\n      dup1\n      sload\n      tag_47\n      swap1\n      tag_46\n      jump\t// in\n    tag_47:\n      dup1\n      iszero\n      tag_48\n      jumpi\n      dup1\n      0x1f\n      lt\n      tag_49\n      jumpi\n      0x0100\n      dup1\n      dup4\n      sload\n      div\n      mul\n      dup4\n      mstore\n      swap2\n      0x20\n      add\n      swap2\n      jump(tag_48)\n    tag_49:\n      dup3\n      add\n      swap2\n      swap1\n      0x00\n      mstore\n      keccak256(0x00, 0x20)\n      swap1\n    tag_50:\n      dup2\n      sload\n      dup2\n      mstore\n      swap1\n      0x01\n      add\n      swap1\n      0x20\n      add\n      dup1\n      dup4\n      gt\n      tag_50\n      jumpi\n      dup3\n      swap1\n      sub\n      0x1f\n      and\n      dup3\n      add\n      swap2\n    tag_48:\n      pop\n      pop\n      pop\n      pop\n      pop\n      swap1\n      pop\n        /* \"contracts/DataStorage.sol\":5481:5482  0 */\n      0x00\n        /* \"contracts/DataStorage.sol\":5456:5469  dataReference */\n      dup2\n        /* \"contracts/DataStorage.sol\":5450:5477  bytes(dataReference).length */\n      mload\n        /* \"contracts/DataStorage.sol\":5450:5482  bytes(dataReference).length == 0 */\n      sub\n        /* \"contracts/DataStorage.sol\":5446:5535  if (bytes(dataReference).length == 0) {... */\n      tag_51\n      jumpi\n        /* \"contracts/DataStorage.sol\":5505:5524  DataNotRegistered() */\n      mload(0x40)\n      0x08a3a12b00000000000000000000000000000000000000000000000000000000\n      dup2\n      mstore\n      0x04\n      add\n      mload(0x40)\n      dup1\n      swap2\n      sub\n      swap1\n      revert\n        /* \"contracts/DataStorage.sol\":5446:5535  if (bytes(dataReference).length == 0) {... */\n    tag_51:\n        /* \"contracts/DataStorage.sol\":5551:5564  dataReference */\n      dup1\n        /* \"contracts/DataStorage.sol\":5544:5564  return dataReference */\n      swap2\n      pop\n      pop\n        /* \"contracts/DataStorage.sol\":5236:5571  function getData(uint256 _sampleId)... */\n      swap2\n      swap1\n      pop\n      jump\t// out\n        /* \"contracts/DataStorage.sol\":1550:1586  address public accessControlContract */\n    tag_18:\n      0x04\n      0x00\n      swap1\n      sload\n      swap1\n      0x0100\n      exp\n      swap1\n      div\n      0xffffffffffffffffffffffffffffffffffffffff\n      and\n      dup2\n      jump\t// out\n        /* \"contracts/DataStorage.sol\":4512:4975  function updateData(uint256 _sampleId, string calldata _dataReference)... */\n    tag_24:\n        /* \"contracts/DataStorage.sol\":4618:4627  _sampleId */\n      dup3\n        /* \"contracts/DataStorage.sol\":2388:2398  msg.sender */\n      caller\n        /* \"contracts/DataStorage.sol\":2356:2398  sampleIdToPatient[_sampleId] != msg.sender */\n      0xffffffffffffffffffffffffffffffffffffffff\n      and\n        /* \"contracts/DataStorage.sol\":2356:2373  sampleIdToPatient */\n      0x02\n        /* \"contracts/DataStorage.sol\":2356:2384  sampleIdToPatient[_sampleId] */\n      0x00\n        /* \"contracts/DataStorage.sol\":2374:2383  _sampleId */\n      dup4\n        /* \"contracts/DataStorage.sol\":2356:2384  sampleIdToPatient[_sampleId] */\n      dup2\n      mstore\n      0x20\n      add\n      swap1\n      dup2\n      mstore\n      0x20\n      add\n      0x00\n      keccak256\n      0x00\n      swap1\n      sload\n      swap1\n      0x0100\n      exp\n      swap1\n      div\n      0xffffffffffffffffffffffffffffffffffffffff\n      and\n        /* \"contracts/DataStorage.sol\":2356:2398  sampleIdToPatient[_sampleId] != msg.sender */\n      0xffffffffffffffffffffffffffffffffffffffff\n      and\n      eq\n        /* \"contracts/DataStorage.sol\":2352:2447  if (sampleIdToPatient[_sampleId] != msg.sender) {... */\n      tag_53\n      jumpi\n        /* \"contracts/DataStorage.sol\":2421:2436  NotAuthorized() */\n      mload(0x40)\n      0xea8e4eb500000000000000000000000000000000000000000000000000000000\n      dup2\n      mstore\n      0x04\n      add\n      mload(0x40)\n      dup1\n      swap2\n      sub\n      swap1\n      revert\n        /* \"contracts/DataStorage.sol\":2352:2447  if (sampleIdToPatient[_sampleId] != msg.sender) {... */\n    tag_53:\n        /* \"contracts/DataStorage.sol\":4697:4698  0 */\n      0x00\n        /* \"contracts/DataStorage.sol\":4653:4674  geneticDataBySampleId */\n      dup1\n        /* \"contracts/DataStorage.sol\":4653:4685  geneticDataBySampleId[_sampleId] */\n      0x00\n        /* \"contracts/DataStorage.sol\":4675:4684  _sampleId */\n      dup7\n        /* \"contracts/DataStorage.sol\":4653:4685  geneticDataBySampleId[_sampleId] */\n      dup2\n      mstore\n      0x20\n      add\n      swap1\n      dup2\n      mstore\n      0x20\n      add\n      0x00\n      keccak256\n        /* \"contracts/DataStorage.sol\":4647:4693  bytes(geneticDataBySampleId[_sampleId]).length */\n      dup1\n      sload\n      tag_55\n      swap1\n      tag_46\n      jump\t// in\n    tag_55:\n      swap1\n      pop\n        /* \"contracts/DataStorage.sol\":4647:4698  bytes(geneticDataBySampleId[_sampleId]).length == 0 */\n      sub\n        /* \"contracts/DataStorage.sol\":4643:4751  if (bytes(geneticDataBySampleId[_sampleId]).length == 0) {... */\n      tag_56\n      jumpi\n        /* \"contracts/DataStorage.sol\":4721:4740  DataNotRegistered() */\n      mload(0x40)\n      0x08a3a12b00000000000000000000000000000000000000000000000000000000\n      dup2\n      mstore\n      0x04\n      add\n      mload(0x40)\n      dup1\n      swap2\n      sub\n      swap1\n      revert\n        /* \"contracts/DataStorage.sol\":4643:4751  if (bytes(geneticDataBySampleId[_sampleId]).length == 0) {... */\n    tag_56:\n        /* \"contracts/DataStorage.sol\":4796:4797  0 */\n      0x00\n        /* \"contracts/DataStorage.sol\":4770:4784  _dataReference */\n      dup4\n      dup4\n        /* \"contracts/DataStorage.sol\":4764:4792  bytes(_dataReference).length */\n      swap1\n      pop\n        /* \"contracts/DataStorage.sol\":4764:4797  bytes(_dataReference).length == 0 */\n      sub\n        /* \"contracts/DataStorage.sol\":4760:4859  if (bytes(_dataReference).length == 0) {... */\n      tag_57\n      jumpi\n        /* \"contracts/DataStorage.sol\":4820:4848  DataReferenceCannotBeEmpty() */\n      mload(0x40)\n      0x4722cb3400000000000000000000000000000000000000000000000000000000\n      dup2\n      mstore\n      0x04\n      add\n      mload(0x40)\n      dup1\n      swap2\n      sub\n      swap1\n      revert\n        /* \"contracts/DataStorage.sol\":4760:4859  if (bytes(_dataReference).length == 0) {... */\n    tag_57:\n        /* \"contracts/DataStorage.sol\":4904:4918  _dataReference */\n      dup3\n      dup3\n        /* \"contracts/DataStorage.sol\":4869:4890  geneticDataBySampleId */\n      0x00\n        /* \"contracts/DataStorage.sol\":4869:4901  geneticDataBySampleId[_sampleId] */\n      dup1\n        /* \"contracts/DataStorage.sol\":4891:4900  _sampleId */\n      dup8\n        /* \"contracts/DataStorage.sol\":4869:4901  geneticDataBySampleId[_sampleId] */\n      dup2\n      mstore\n      0x20\n      add\n      swap1\n      dup2\n      mstore\n      0x20\n      add\n      0x00\n      keccak256\n        /* \"contracts/DataStorage.sol\":4869:4918  geneticDataBySampleId[_sampleId] = _dataReference */\n      swap2\n      dup3\n      tag_58\n      swap3\n      swap2\n      swap1\n      tag_59\n      jump\t// in\n    tag_58:\n      pop\n        /* \"contracts/DataStorage.sol\":4958:4967  _sampleId */\n      dup4\n        /* \"contracts/DataStorage.sol\":4946:4956  msg.sender */\n      caller\n        /* \"contracts/DataStorage.sol\":4934:4968  DataUpdated(msg.sender, _sampleId) */\n      0xffffffffffffffffffffffffffffffffffffffff\n      and\n      0x8aa8bd4e43dc6bb61a5221865a01a65c13e1171dfe8c9ba47c09cf85c07435a1\n      mload(0x40)\n      mload(0x40)\n      dup1\n      swap2\n      sub\n      swap1\n      log3\n        /* \"contracts/DataStorage.sol\":4512:4975  function updateData(uint256 _sampleId, string calldata _dataReference)... */\n      pop\n      pop\n      pop\n      pop\n      jump\t// out\n        /* \"contracts/DataStorage.sol\":1305:1357  mapping(uint256 => address) public sampleIdToPatient */\n    tag_27:\n      mstore(0x20, 0x02)\n      dup1\n      0x00\n      mstore\n      keccak256(0x00, 0x40)\n      0x00\n      swap2\n      pop\n      sload\n      swap1\n      0x0100\n      exp\n      swap1\n      div\n      0xffffffffffffffffffffffffffffffffffffffff\n      and\n      dup2\n      jump\t// out\n        /* \"contracts/DataStorage.sol\":2880:3116  function initialize(address _accessControlContract) public initializer {... */\n    tag_32:\n        /* \"@openzeppelin/contracts-upgradeable/proxy/utils/Initializable.sol\":4158:4188  InitializableStorage storage $ */\n      0x00\n        /* \"@openzeppelin/contracts-upgradeable/proxy/utils/Initializable.sol\":4191:4217  _getInitializableStorage() */\n      tag_61\n        /* \"@openzeppelin/contracts-upgradeable/proxy/utils/Initializable.sol\":4191:4215  _getInitializableStorage */\n      tag_62\n        /* \"@openzeppelin/contracts-upgradeable/proxy/utils/Initializable.sol\":4191:4217  _getInitializableStorage() */\n      jump\t// in\n    tag_61:\n        /* \"@openzeppelin/contracts-upgradeable/proxy/utils/Initializable.sol\":4158:4217  InitializableStorage storage $ = _getInitializableStorage() */\n      swap1\n      pop\n        /* \"@openzeppelin/contracts-upgradeable/proxy/utils/Initializable.sol\":4279:4298  bool isTopLevelCall */\n      0x00\n        /* \"@openzeppelin/contracts-upgradeable/proxy/utils/Initializable.sol\":4302:4303  $ */\n      dup2\n        /* \"@openzeppelin/contracts-upgradeable/proxy/utils/Initializable.sol\":4302:4317  $._initializing */\n      0x00\n      add\n      0x08\n      swap1\n      sload\n      swap1\n      0x0100\n      exp\n      swap1\n      div\n      0xff\n      and\n        /* \"@openzeppelin/contracts-upgradeable/proxy/utils/Initializable.sol\":4301:4317  !$._initializing */\n      iszero\n        /* \"@openzeppelin/contracts-upgradeable/proxy/utils/Initializable.sol\":4279:4317  bool isTopLevelCall = !$._initializing */\n      swap1\n      pop\n        /* \"@openzeppelin/contracts-upgradeable/proxy/utils/Initializable.sol\":4327:4345  uint64 initialized */\n      0x00\n        /* \"@openzeppelin/contracts-upgradeable/proxy/utils/Initializable.sol\":4348:4349  $ */\n      dup3\n        /* \"@openzeppelin/contracts-upgradeable/proxy/utils/Initializable.sol\":4348:4362  $._initialized */\n      0x00\n      add\n      0x00\n      swap1\n      sload\n      swap1\n      0x0100\n      exp\n      swap1\n      div\n      0xffffffffffffffff\n      and\n        /* \"@openzeppelin/contracts-upgradeable/proxy/utils/Initializable.sol\":4327:4362  uint64 initialized = $._initialized */\n      swap1\n      pop\n        /* \"@openzeppelin/contracts-upgradeable/proxy/utils/Initializable.sol\":4706:4723  bool initialSetup */\n      0x00\n        /* \"@openzeppelin/contracts-upgradeable/proxy/utils/Initializable.sol\":4741:4742  0 */\n      dup1\n        /* \"@openzeppelin/contracts-upgradeable/proxy/utils/Initializable.sol\":4726:4737  initialized */\n      dup3\n        /* \"@openzeppelin/contracts-upgradeable/proxy/utils/Initializable.sol\":4726:4742  initialized == 0 */\n      0xffffffffffffffff\n      and\n      eq\n        /* \"@openzeppelin/contracts-upgradeable/proxy/utils/Initializable.sol\":4726:4760  initialized == 0 && isTopLevelCall */\n      dup1\n      iszero\n      tag_63\n      jumpi\n      pop\n        /* \"@openzeppelin/contracts-upgradeable/proxy/utils/Initializable.sol\":4746:4760  isTopLevelCall */\n      dup3\n        /* \"@openzeppelin/contracts-upgradeable/proxy/utils/Initializable.sol\":4726:4760  initialized == 0 && isTopLevelCall */\n    tag_63:\n        /* \"@openzeppelin/contracts-upgradeable/proxy/utils/Initializable.sol\":4706:4760  bool initialSetup = initialized == 0 && isTopLevelCall */\n      swap1\n      pop\n        /* \"@openzeppelin/contracts-upgradeable/proxy/utils/Initializable.sol\":4770:4787  bool construction */\n      0x00\n        /* \"@openzeppelin/contracts-upgradeable/proxy/utils/Initializable.sol\":4805:4806  1 */\n      0x01\n        /* \"@openzeppelin/contracts-upgradeable/proxy/utils/Initializable.sol\":4790:4801  initialized */\n      dup4\n        /* \"@openzeppelin/contracts-upgradeable/proxy/utils/Initializable.sol\":4790:4806  initialized == 1 */\n      0xffffffffffffffff\n      and\n      eq\n        /* \"@openzeppelin/contracts-upgradeable/proxy/utils/Initializable.sol\":4790:4840  initialized == 1 && address(this).code.length == 0 */\n      dup1\n      iszero\n      tag_64\n      jumpi\n      pop\n        /* \"@openzeppelin/contracts-upgradeable/proxy/utils/Initializable.sol\":4839:4840  0 */\n      0x00\n        /* \"@openzeppelin/contracts-upgradeable/proxy/utils/Initializable.sol\":4818:4822  this */\n      address\n        /* \"@openzeppelin/contracts-upgradeable/proxy/utils/Initializable.sol\":4810:4835  address(this).code.length */\n      0xffffffffffffffffffffffffffffffffffffffff\n      and\n      extcodesize\n        /* \"@openzeppelin/contracts-upgradeable/proxy/utils/Initializable.sol\":4810:4840  address(this).code.length == 0 */\n      eq\n        /* \"@openzeppelin/contracts-upgradeable/proxy/utils/Initializable.sol\":4790:4840  initialized == 1 && address(this).code.length == 0 */\n    tag_64:\n        /* \"@openzeppelin/contracts-upgradeable/proxy/utils/Initializable.sol\":4770:4840  bool construction = initialized == 1 && address(this).code.length == 0 */\n      swap1\n      pop\n        /* \"@openzeppelin/contracts-upgradeable/proxy/utils/Initializable.sol\":4856:4868  initialSetup */\n      dup2\n        /* \"@openzeppelin/contracts-upgradeable/proxy/utils/Initializable.sol\":4855:4868  !initialSetup */\n      iszero\n        /* \"@openzeppelin/contracts-upgradeable/proxy/utils/Initializable.sol\":4855:4885  !initialSetup && !construction */\n      dup1\n      iszero\n      tag_65\n      jumpi\n      pop\n        /* \"@openzeppelin/contracts-upgradeable/proxy/utils/Initializable.sol\":4873:4885  construction */\n      dup1\n        /* \"@openzeppelin/contracts-upgradeable/proxy/utils/Initializable.sol\":4872:4885  !construction */\n      iszero\n        /* \"@openzeppelin/contracts-upgradeable/proxy/utils/Initializable.sol\":4855:4885  !initialSetup && !construction */\n    tag_65:\n        /* \"@openzeppelin/contracts-upgradeable/proxy/utils/Initializable.sol\":4851:4942  if (!initialSetup && !construction) {... */\n      iszero\n      tag_66\n      jumpi\n        /* \"@openzeppelin/contracts-upgradeable/proxy/utils/Initializable.sol\":4908:4931  InvalidInitialization() */\n      mload(0x40)\n      0xf92ee8a900000000000000000000000000000000000000000000000000000000\n      dup2\n      mstore\n      0x04\n      add\n      mload(0x40)\n      dup1\n      swap2\n      sub\n      swap1\n      revert\n        /* \"@openzeppelin/contracts-upgradeable/proxy/utils/Initializable.sol\":4851:4942  if (!initialSetup && !construction) {... */\n    tag_66:\n        /* \"@openzeppelin/contracts-upgradeable/proxy/utils/Initializable.sol\":4968:4969  1 */\n      0x01\n        /* \"@openzeppelin/contracts-upgradeable/proxy/utils/Initializable.sol\":4951:4952  $ */\n      dup6\n        /* \"@openzeppelin/contracts-upgradeable/proxy/utils/Initializable.sol\":4951:4965  $._initialized */\n      0x00\n      add\n      0x00\n        /* \"@openzeppelin/contracts-upgradeable/proxy/utils/Initializable.sol\":4951:4969  $._initialized = 1 */\n      0x0100\n      exp\n      dup2\n      sload\n      dup2\n      0xffffffffffffffff\n      mul\n      not\n      and\n      swap1\n      dup4\n      0xffffffffffffffff\n      and\n      mul\n      or\n      swap1\n      sstore\n      pop\n        /* \"@openzeppelin/contracts-upgradeable/proxy/utils/Initializable.sol\":4983:4997  isTopLevelCall */\n      dup4\n        /* \"@openzeppelin/contracts-upgradeable/proxy/utils/Initializable.sol\":4979:5046  if (isTopLevelCall) {... */\n      iszero\n      tag_67\n      jumpi\n        /* \"@openzeppelin/contracts-upgradeable/proxy/utils/Initializable.sol\":5031:5035  true */\n      0x01\n        /* \"@openzeppelin/contracts-upgradeable/proxy/utils/Initializable.sol\":5013:5014  $ */\n      dup6\n        /* \"@openzeppelin/contracts-upgradeable/proxy/utils/Initializable.sol\":5013:5028  $._initializing */\n      0x00\n      add\n      0x08\n        /* \"@openzeppelin/contracts-upgradeable/proxy/utils/Initializable.sol\":5013:5035  $._initializing = true */\n      0x0100\n      exp\n      dup2\n      sload\n      dup2\n      0xff\n      mul\n      not\n      and\n      swap1\n      dup4\n      iszero\n      iszero\n      mul\n      or\n      swap1\n      sstore\n      pop\n        /* \"@openzeppelin/contracts-upgradeable/proxy/utils/Initializable.sol\":4979:5046  if (isTopLevelCall) {... */\n    tag_67:\n        /* \"contracts/DataStorage.sol\":2999:3000  0 */\n      0x00\n        /* \"contracts/DataStorage.sol\":2965:3001  _accessControlContract == address(0) */\n      0xffffffffffffffffffffffffffffffffffffffff\n      and\n        /* \"contracts/DataStorage.sol\":2965:2987  _accessControlContract */\n      dup7\n        /* \"contracts/DataStorage.sol\":2965:3001  _accessControlContract == address(0) */\n      0xffffffffffffffffffffffffffffffffffffffff\n      and\n      sub\n        /* \"contracts/DataStorage.sol\":2961:3054  if (_accessControlContract == address(0)) {... */\n      tag_69\n      jumpi\n        /* \"contracts/DataStorage.sol\":3024:3043  AccessControlOnly() */\n      mload(0x40)\n      0x57b865e000000000000000000000000000000000000000000000000000000000\n      dup2\n      mstore\n      0x04\n      add\n      mload(0x40)\n      dup1\n      swap2\n      sub\n      swap1\n      revert\n        /* \"contracts/DataStorage.sol\":2961:3054  if (_accessControlContract == address(0)) {... */\n    tag_69:\n        /* \"contracts/DataStorage.sol\":3087:3109  _accessControlContract */\n      dup6\n        /* \"contracts/DataStorage.sol\":3063:3084  accessControlContract */\n      0x04\n      0x00\n        /* \"contracts/DataStorage.sol\":3063:3109  accessControlContract = _accessControlContract */\n      0x0100\n      exp\n      dup2\n      sload\n      dup2\n      0xffffffffffffffffffffffffffffffffffffffff\n      mul\n      not\n      and\n      swap1\n      dup4\n      0xffffffffffffffffffffffffffffffffffffffff\n      and\n      mul\n      or\n      swap1\n      sstore\n      pop\n        /* \"@openzeppelin/contracts-upgradeable/proxy/utils/Initializable.sol\":5070:5084  isTopLevelCall */\n      dup4\n        /* \"@openzeppelin/contracts-upgradeable/proxy/utils/Initializable.sol\":5066:5167  if (isTopLevelCall) {... */\n      iszero\n      tag_70\n      jumpi\n        /* \"@openzeppelin/contracts-upgradeable/proxy/utils/Initializable.sol\":5118:5123  false */\n      0x00\n        /* \"@openzeppelin/contracts-upgradeable/proxy/utils/Initializable.sol\":5100:5101  $ */\n      dup6\n        /* \"@openzeppelin/contracts-upgradeable/proxy/utils/Initializable.sol\":5100:5115  $._initializing */\n      0x00\n      add\n      0x08\n        /* \"@openzeppelin/contracts-upgradeable/proxy/utils/Initializable.sol\":5100:5123  $._initializing = false */\n      0x0100\n      exp\n      dup2\n      sload\n      dup2\n      0xff\n      mul\n      not\n      and\n      swap1\n      dup4\n      iszero\n      iszero\n      mul\n      or\n      swap1\n      sstore\n      pop\n        /* \"@openzeppelin/contracts-upgradeable/proxy/utils/Initializable.sol\":5142:5156  Initialized(1) */\n      0xc7f505b2f371ae2175ee4913f4499e1f2633a7b5936321eed1cdaeb6115181d2\n        /* \"@openzeppelin/contracts-upgradeable/proxy/utils/Initializable.sol\":5154:5155  1 */\n      0x01\n        /* \"@openzeppelin/contracts-upgradeable/proxy/utils/Initializable.sol\":5142:5156  Initialized(1) */\n      mload(0x40)\n      tag_71\n      swap2\n      swap1\n      tag_72\n      jump\t// in\n    tag_71:\n      mload(0x40)\n      dup1\n      swap2\n      sub\n      swap1\n      log1\n        /* \"@openzeppelin/contracts-upgradeable/proxy/utils/Initializable.sol\":5066:5167  if (isTopLevelCall) {... */\n    tag_70:\n        /* \"@openzeppelin/contracts-upgradeable/proxy/utils/Initializable.sol\":4092:5173  {... */\n      pop\n      pop\n      pop\n      pop\n      pop\n        /* \"contracts/DataStorage.sol\":2880:3116  function initialize(address _accessControlContract) public initializer {... */\n      pop\n      jump\t// out\n        /* \"contracts/DataStorage.sol\":3692:4232  function registerData(string calldata _dataReference)... */\n    tag_36:\n        /* \"contracts/DataStorage.sol\":3820:3821  0 */\n      0x00\n        /* \"contracts/DataStorage.sol\":3781:3822  sampleIdToPatient[sampleID] != address(0) */\n      0xffffffffffffffffffffffffffffffffffffffff\n      and\n        /* \"contracts/DataStorage.sol\":3781:3798  sampleIdToPatient */\n      0x02\n        /* \"contracts/DataStorage.sol\":3781:3808  sampleIdToPatient[sampleID] */\n      0x00\n        /* \"contracts/DataStorage.sol\":3799:3807  sampleID */\n      sload(0x03)\n        /* \"contracts/DataStorage.sol\":3781:3808  sampleIdToPatient[sampleID] */\n      dup2\n      mstore\n      0x20\n      add\n      swap1\n      dup2\n      mstore\n      0x20\n      add\n      0x00\n      keccak256\n      0x00\n      swap1\n      sload\n      swap1\n      0x0100\n      exp\n      swap1\n      div\n      0xffffffffffffffffffffffffffffffffffffffff\n      and\n        /* \"contracts/DataStorage.sol\":3781:3822  sampleIdToPatient[sampleID] != address(0) */\n      0xffffffffffffffffffffffffffffffffffffffff\n      and\n      eq\n        /* \"contracts/DataStorage.sol\":3777:3881  if (sampleIdToPatient[sampleID] != address(0)) {... */\n      tag_74\n      jumpi\n        /* \"contracts/DataStorage.sol\":3845:3870  SampleAlreadyRegistered() */\n      mload(0x40)\n      0xddeca80400000000000000000000000000000000000000000000000000000000\n      dup2\n      mstore\n      0x04\n      add\n      mload(0x40)\n      dup1\n      swap2\n      sub\n      swap1\n      revert\n        /* \"contracts/DataStorage.sol\":3777:3881  if (sampleIdToPatient[sampleID] != address(0)) {... */\n    tag_74:\n        /* \"contracts/DataStorage.sol\":3926:3927  0 */\n      0x00\n        /* \"contracts/DataStorage.sol\":3900:3914  _dataReference */\n      dup3\n      dup3\n        /* \"contracts/DataStorage.sol\":3894:3922  bytes(_dataReference).length */\n      swap1\n      pop\n        /* \"contracts/DataStorage.sol\":3894:3927  bytes(_dataReference).length == 0 */\n      sub\n        /* \"contracts/DataStorage.sol\":3890:3989  if (bytes(_dataReference).length == 0) {... */\n      tag_75\n      jumpi\n        /* \"contracts/DataStorage.sol\":3950:3978  DataReferenceCannotBeEmpty() */\n      mload(0x40)\n      0x4722cb3400000000000000000000000000000000000000000000000000000000\n      dup2\n      mstore\n      0x04\n      add\n      mload(0x40)\n      dup1\n      swap2\n      sub\n      swap1\n      revert\n        /* \"contracts/DataStorage.sol\":3890:3989  if (bytes(_dataReference).length == 0) {... */\n    tag_75:\n        /* \"contracts/DataStorage.sol\":4033:4047  _dataReference */\n      dup2\n      dup2\n        /* \"contracts/DataStorage.sol\":3999:4020  geneticDataBySampleId */\n      0x00\n        /* \"contracts/DataStorage.sol\":3999:4030  geneticDataBySampleId[sampleID] */\n      dup1\n        /* \"contracts/DataStorage.sol\":4021:4029  sampleID */\n      sload(0x03)\n        /* \"contracts/DataStorage.sol\":3999:4030  geneticDataBySampleId[sampleID] */\n      dup2\n      mstore\n      0x20\n      add\n      swap1\n      dup2\n      mstore\n      0x20\n      add\n      0x00\n      keccak256\n        /* \"contracts/DataStorage.sol\":3999:4047  geneticDataBySampleId[sampleID] = _dataReference */\n      swap2\n      dup3\n      tag_76\n      swap3\n      swap2\n      swap1\n      tag_59\n      jump\t// in\n    tag_76:\n      pop\n        /* \"contracts/DataStorage.sol\":4057:4075  sampleIdsByPatient */\n      0x01\n        /* \"contracts/DataStorage.sol\":4057:4087  sampleIdsByPatient[msg.sender] */\n      0x00\n        /* \"contracts/DataStorage.sol\":4076:4086  msg.sender */\n      caller\n        /* \"contracts/DataStorage.sol\":4057:4087  sampleIdsByPatient[msg.sender] */\n      0xffffffffffffffffffffffffffffffffffffffff\n      and\n      0xffffffffffffffffffffffffffffffffffffffff\n      and\n      dup2\n      mstore\n      0x20\n      add\n      swap1\n      dup2\n      mstore\n      0x20\n      add\n      0x00\n      keccak256\n        /* \"contracts/DataStorage.sol\":4093:4101  sampleID */\n      sload(0x03)\n        /* \"contracts/DataStorage.sol\":4057:4102  sampleIdsByPatient[msg.sender].push(sampleID) */\n      swap1\n      dup1\n      0x01\n      dup2\n      sload\n      add\n      dup1\n      dup3\n      sstore\n      dup1\n      swap2\n      pop\n      pop\n      0x01\n      swap1\n      sub\n      swap1\n      0x00\n      mstore\n      keccak256(0x00, 0x20)\n      add\n      0x00\n      swap1\n      swap2\n      swap1\n      swap2\n      swap1\n      swap2\n      pop\n      sstore\n        /* \"contracts/DataStorage.sol\":4142:4152  msg.sender */\n      caller\n        /* \"contracts/DataStorage.sol\":4112:4129  sampleIdToPatient */\n      0x02\n        /* \"contracts/DataStorage.sol\":4112:4139  sampleIdToPatient[sampleID] */\n      0x00\n        /* \"contracts/DataStorage.sol\":4130:4138  sampleID */\n      sload(0x03)\n        /* \"contracts/DataStorage.sol\":4112:4139  sampleIdToPatient[sampleID] */\n      dup2\n      mstore\n      0x20\n      add\n      swap1\n      dup2\n      mstore\n      0x20\n      add\n      0x00\n      keccak256\n      0x00\n        /* \"contracts/DataStorage.sol\":4112:4152  sampleIdToPatient[sampleID] = msg.sender */\n      0x0100\n      exp\n      dup2\n      sload\n      dup2\n      0xffffffffffffffffffffffffffffffffffffffff\n      mul\n      not\n      and\n      swap1\n      dup4\n      0xffffffffffffffffffffffffffffffffffffffff\n      and\n      mul\n      or\n      swap1\n      sstore\n      pop\n        /* \"contracts/DataStorage.sol\":4195:4203  sampleID */\n      sload(0x03)\n        /* \"contracts/DataStorage.sol\":4183:4193  msg.sender */\n      caller\n        /* \"contracts/DataStorage.sol\":4168:4204  DataRegistered(msg.sender, sampleID) */\n      0xffffffffffffffffffffffffffffffffffffffff\n      and\n      0x4b8f205ad1001640fd10229d060967f465a58c68ae732e6aa5120bfbdf0dd975\n      mload(0x40)\n      mload(0x40)\n      dup1\n      swap2\n      sub\n      swap1\n      log3\n        /* \"contracts/DataStorage.sol\":4215:4223  sampleID */\n      0x03\n      0x00\n        /* \"contracts/DataStorage.sol\":4215:4225  sampleID++ */\n      dup2\n      sload\n      dup1\n      swap3\n      swap2\n      swap1\n      tag_78\n      swap1\n      tag_79\n      jump\t// in\n    tag_78:\n      swap2\n      swap1\n      pop\n      sstore\n      pop\n        /* \"contracts/DataStorage.sol\":3692:4232  function registerData(string calldata _dataReference)... */\n      pop\n      pop\n      jump\t// out\n        /* \"contracts/DataStorage.sol\":3303:3473  function getSampleIdsByPatient(address _patient)... */\n    tag_39:\n        /* \"contracts/DataStorage.sol\":3399:3415  uint256[] memory */\n      0x60\n        /* \"contracts/DataStorage.sol\":3438:3456  sampleIdsByPatient */\n      0x01\n        /* \"contracts/DataStorage.sol\":3438:3466  sampleIdsByPatient[_patient] */\n      0x00\n        /* \"contracts/DataStorage.sol\":3457:3465  _patient */\n      dup4\n        /* \"contracts/DataStorage.sol\":3438:3466  sampleIdsByPatient[_patient] */\n      0xffffffffffffffffffffffffffffffffffffffff\n      and\n      0xffffffffffffffffffffffffffffffffffffffff\n      and\n      dup2\n      mstore\n      0x20\n      add\n      swap1\n      dup2\n      mstore\n      0x20\n      add\n      0x00\n      keccak256\n        /* \"contracts/DataStorage.sol\":3431:3466  return sampleIdsByPatient[_patient] */\n      dup1\n      sload\n      dup1\n      0x20\n      mul\n      0x20\n      add\n      mload(0x40)\n      swap1\n      dup2\n      add\n      0x40\n      mstore\n      dup1\n      swap3\n      swap2\n      swap1\n      dup2\n      dup2\n      mstore\n      0x20\n      add\n      dup3\n      dup1\n      sload\n      dup1\n      iszero\n      tag_81\n      jumpi\n      0x20\n      mul\n      dup3\n      add\n      swap2\n      swap1\n      0x00\n      mstore\n      keccak256(0x00, 0x20)\n      swap1\n    tag_82:\n      dup2\n      sload\n      dup2\n      mstore\n      0x20\n      add\n      swap1\n      0x01\n      add\n      swap1\n      dup1\n      dup4\n      gt\n      tag_82\n      jumpi\n    tag_81:\n      pop\n      pop\n      pop\n      pop\n      pop\n      swap1\n      pop\n        /* \"contracts/DataStorage.sol\":3303:3473  function getSampleIdsByPatient(address _patient)... */\n      swap2\n      swap1\n      pop\n      jump\t// out\n        /* \"@openzeppelin/contracts-upgradeable/proxy/utils/Initializable.sol\":8737:8907  function _getInitializableStorage() private pure returns (InitializableStorage storage $) {... */\n    tag_62:\n        /* \"@openzeppelin/contracts-upgradeable/proxy/utils/Initializable.sol\":8795:8825  InitializableStorage storage $ */\n      0x00\n        /* \"@openzeppelin/contracts-upgradeable/proxy/utils/Initializable.sol\":8870:8891  INITIALIZABLE_STORAGE */\n      0xf0c57e16840df040f15088dc2f81fe391c3923bec73e23a9662efc9c229c6a00\n        /* \"@openzeppelin/contracts-upgradeable/proxy/utils/Initializable.sol\":8860:8891  $.slot := INITIALIZABLE_STORAGE */\n      swap1\n      pop\n        /* \"@openzeppelin/contracts-upgradeable/proxy/utils/Initializable.sol\":8737:8907  function _getInitializableStorage() private pure returns (InitializableStorage storage $) {... */\n      swap1\n      jump\t// out\n        /* \"#utility.yul\":88:205   */\n    tag_85:\n        /* \"#utility.yul\":197:198   */\n      0x00\n        /* \"#utility.yul\":194:195   */\n      dup1\n        /* \"#utility.yul\":187:199   */\n      revert\n        /* \"#utility.yul\":211:328   */\n    tag_86:\n        /* \"#utility.yul\":320:321   */\n      0x00\n        /* \"#utility.yul\":317:318   */\n      dup1\n        /* \"#utility.yul\":310:322   */\n      revert\n        /* \"#utility.yul\":334:411   */\n    tag_87:\n        /* \"#utility.yul\":371:378   */\n      0x00\n        /* \"#utility.yul\":400:405   */\n      dup2\n        /* \"#utility.yul\":389:405   */\n      swap1\n      pop\n        /* \"#utility.yul\":334:411   */\n      swap2\n      swap1\n      pop\n      jump\t// out\n        /* \"#utility.yul\":417:539   */\n    tag_88:\n        /* \"#utility.yul\":490:514   */\n      tag_140\n        /* \"#utility.yul\":508:513   */\n      dup2\n        /* \"#utility.yul\":490:514   */\n      tag_87\n      jump\t// in\n    tag_140:\n        /* \"#utility.yul\":483:488   */\n      dup2\n        /* \"#utility.yul\":480:515   */\n      eq\n        /* \"#utility.yul\":470:533   */\n      tag_141\n      jumpi\n        /* \"#utility.yul\":529:530   */\n      0x00\n        /* \"#utility.yul\":526:527   */\n      dup1\n        /* \"#utility.yul\":519:531   */\n      revert\n        /* \"#utility.yul\":470:533   */\n    tag_141:\n        /* \"#utility.yul\":417:539   */\n      pop\n      jump\t// out\n        /* \"#utility.yul\":545:684   */\n    tag_89:\n        /* \"#utility.yul\":591:596   */\n      0x00\n        /* \"#utility.yul\":629:635   */\n      dup2\n        /* \"#utility.yul\":616:636   */\n      calldataload\n        /* \"#utility.yul\":607:636   */\n      swap1\n      pop\n        /* \"#utility.yul\":645:678   */\n      tag_143\n        /* \"#utility.yul\":672:677   */\n      dup2\n        /* \"#utility.yul\":645:678   */\n      tag_88\n      jump\t// in\n    tag_143:\n        /* \"#utility.yul\":545:684   */\n      swap3\n      swap2\n      pop\n      pop\n      jump\t// out\n        /* \"#utility.yul\":690:1019   */\n    tag_13:\n        /* \"#utility.yul\":749:755   */\n      0x00\n        /* \"#utility.yul\":798:800   */\n      0x20\n        /* \"#utility.yul\":786:795   */\n      dup3\n        /* \"#utility.yul\":777:784   */\n      dup5\n        /* \"#utility.yul\":773:796   */\n      sub\n        /* \"#utility.yul\":769:801   */\n      slt\n        /* \"#utility.yul\":766:885   */\n      iszero\n      tag_145\n      jumpi\n        /* \"#utility.yul\":804:883   */\n      tag_146\n      tag_85\n      jump\t// in\n    tag_146:\n        /* \"#utility.yul\":766:885   */\n    tag_145:\n        /* \"#utility.yul\":924:925   */\n      0x00\n        /* \"#utility.yul\":949:1002   */\n      tag_147\n        /* \"#utility.yul\":994:1001   */\n      dup5\n        /* \"#utility.yul\":985:991   */\n      dup3\n        /* \"#utility.yul\":974:983   */\n      dup6\n        /* \"#utility.yul\":970:992   */\n      add\n        /* \"#utility.yul\":949:1002   */\n      tag_89\n      jump\t// in\n    tag_147:\n        /* \"#utility.yul\":939:1002   */\n      swap2\n      pop\n        /* \"#utility.yul\":895:1012   */\n      pop\n        /* \"#utility.yul\":690:1019   */\n      swap3\n      swap2\n      pop\n      pop\n      jump\t// out\n        /* \"#utility.yul\":1025:1124   */\n    tag_90:\n        /* \"#utility.yul\":1077:1083   */\n      0x00\n        /* \"#utility.yul\":1111:1116   */\n      dup2\n        /* \"#utility.yul\":1105:1117   */\n      mload\n        /* \"#utility.yul\":1095:1117   */\n      swap1\n      pop\n        /* \"#utility.yul\":1025:1124   */\n      swap2\n      swap1\n      pop\n      jump\t// out\n        /* \"#utility.yul\":1130:1299   */\n    tag_91:\n        /* \"#utility.yul\":1214:1225   */\n      0x00\n        /* \"#utility.yul\":1248:1254   */\n      dup3\n        /* \"#utility.yul\":1243:1246   */\n      dup3\n        /* \"#utility.yul\":1236:1255   */\n      mstore\n        /* \"#utility.yul\":1288:1292   */\n      0x20\n        /* \"#utility.yul\":1283:1286   */\n      dup3\n        /* \"#utility.yul\":1279:1293   */\n      add\n        /* \"#utility.yul\":1264:1293   */\n      swap1\n      pop\n        /* \"#utility.yul\":1130:1299   */\n      swap3\n      swap2\n      pop\n      pop\n      jump\t// out\n        /* \"#utility.yul\":1305:1444   */\n    tag_92:\n        /* \"#utility.yul\":1394:1400   */\n      dup3\n        /* \"#utility.yul\":1389:1392   */\n      dup2\n        /* \"#utility.yul\":1384:1387   */\n      dup4\n        /* \"#utility.yul\":1378:1401   */\n      mcopy\n        /* \"#utility.yul\":1435:1436   */\n      0x00\n        /* \"#utility.yul\":1426:1432   */\n      dup4\n        /* \"#utility.yul\":1421:1424   */\n      dup4\n        /* \"#utility.yul\":1417:1433   */\n      add\n        /* \"#utility.yul\":1410:1437   */\n      mstore\n        /* \"#utility.yul\":1305:1444   */\n      pop\n      pop\n      pop\n      jump\t// out\n        /* \"#utility.yul\":1450:1552   */\n    tag_93:\n        /* \"#utility.yul\":1491:1497   */\n      0x00\n        /* \"#utility.yul\":1542:1544   */\n      0x1f\n        /* \"#utility.yul\":1538:1545   */\n      not\n        /* \"#utility.yul\":1533:1535   */\n      0x1f\n        /* \"#utility.yul\":1526:1531   */\n      dup4\n        /* \"#utility.yul\":1522:1536   */\n      add\n        /* \"#utility.yul\":1518:1546   */\n      and\n        /* \"#utility.yul\":1508:1546   */\n      swap1\n      pop\n        /* \"#utility.yul\":1450:1552   */\n      swap2\n      swap1\n      pop\n      jump\t// out\n        /* \"#utility.yul\":1558:1935   */\n    tag_94:\n        /* \"#utility.yul\":1646:1649   */\n      0x00\n        /* \"#utility.yul\":1674:1713   */\n      tag_153\n        /* \"#utility.yul\":1707:1712   */\n      dup3\n        /* \"#utility.yul\":1674:1713   */\n      tag_90\n      jump\t// in\n    tag_153:\n        /* \"#utility.yul\":1729:1800   */\n      tag_154\n        /* \"#utility.yul\":1793:1799   */\n      dup2\n        /* \"#utility.yul\":1788:1791   */\n      dup6\n        /* \"#utility.yul\":1729:1800   */\n      tag_91\n      jump\t// in\n    tag_154:\n        /* \"#utility.yul\":1722:1800   */\n      swap4\n      pop\n        /* \"#utility.yul\":1809:1874   */\n      tag_155\n        /* \"#utility.yul\":1867:1873   */\n      dup2\n        /* \"#utility.yul\":1862:1865   */\n      dup6\n        /* \"#utility.yul\":1855:1859   */\n      0x20\n        /* \"#utility.yul\":1848:1853   */\n      dup7\n        /* \"#utility.yul\":1844:1860   */\n      add\n        /* \"#utility.yul\":1809:1874   */\n      tag_92\n      jump\t// in\n    tag_155:\n        /* \"#utility.yul\":1899:1928   */\n      tag_156\n        /* \"#utility.yul\":1921:1927   */\n      dup2\n        /* \"#utility.yul\":1899:1928   */\n      tag_93\n      jump\t// in\n    tag_156:\n        /* \"#utility.yul\":1894:1897   */\n      dup5\n        /* \"#utility.yul\":1890:1929   */\n      add\n        /* \"#utility.yul\":1883:1929   */\n      swap2\n      pop\n        /* \"#utility.yul\":1650:1935   */\n      pop\n        /* \"#utility.yul\":1558:1935   */\n      swap3\n      swap2\n      pop\n      pop\n      jump\t// out\n        /* \"#utility.yul\":1941:2254   */\n    tag_16:\n        /* \"#utility.yul\":2054:2058   */\n      0x00\n        /* \"#utility.yul\":2092:2094   */\n      0x20\n        /* \"#utility.yul\":2081:2090   */\n      dup3\n        /* \"#utility.yul\":2077:2095   */\n      add\n        /* \"#utility.yul\":2069:2095   */\n      swap1\n      pop\n        /* \"#utility.yul\":2141:2150   */\n      dup2\n        /* \"#utility.yul\":2135:2139   */\n      dup2\n        /* \"#utility.yul\":2131:2151   */\n      sub\n        /* \"#utility.yul\":2127:2128   */\n      0x00\n        /* \"#utility.yul\":2116:2125   */\n      dup4\n        /* \"#utility.yul\":2112:2129   */\n      add\n        /* \"#utility.yul\":2105:2152   */\n      mstore\n        /* \"#utility.yul\":2169:2247   */\n      tag_158\n        /* \"#utility.yul\":2242:2246   */\n      dup2\n        /* \"#utility.yul\":2233:2239   */\n      dup5\n        /* \"#utility.yul\":2169:2247   */\n      tag_94\n      jump\t// in\n    tag_158:\n        /* \"#utility.yul\":2161:2247   */\n      swap1\n      pop\n        /* \"#utility.yul\":1941:2254   */\n      swap3\n      swap2\n      pop\n      pop\n      jump\t// out\n        /* \"#utility.yul\":2260:2386   */\n    tag_95:\n        /* \"#utility.yul\":2297:2304   */\n      0x00\n        /* \"#utility.yul\":2337:2379   */\n      0xffffffffffffffffffffffffffffffffffffffff\n        /* \"#utility.yul\":2330:2335   */\n      dup3\n        /* \"#utility.yul\":2326:2380   */\n      and\n        /* \"#utility.yul\":2315:2380   */\n      swap1\n      pop\n        /* \"#utility.yul\":2260:2386   */\n      swap2\n      swap1\n      pop\n      jump\t// out\n        /* \"#utility.yul\":2392:2488   */\n    tag_96:\n        /* \"#utility.yul\":2429:2436   */\n      0x00\n        /* \"#utility.yul\":2458:2482   */\n      tag_161\n        /* \"#utility.yul\":2476:2481   */\n      dup3\n        /* \"#utility.yul\":2458:2482   */\n      tag_95\n      jump\t// in\n    tag_161:\n        /* \"#utility.yul\":2447:2482   */\n      swap1\n      pop\n        /* \"#utility.yul\":2392:2488   */\n      swap2\n      swap1\n      pop\n      jump\t// out\n        /* \"#utility.yul\":2494:2612   */\n    tag_97:\n        /* \"#utility.yul\":2581:2605   */\n      tag_163\n        /* \"#utility.yul\":2599:2604   */\n      dup2\n        /* \"#utility.yul\":2581:2605   */\n      tag_96\n      jump\t// in\n    tag_163:\n        /* \"#utility.yul\":2576:2579   */\n      dup3\n        /* \"#utility.yul\":2569:2606   */\n      mstore\n        /* \"#utility.yul\":2494:2612   */\n      pop\n      pop\n      jump\t// out\n        /* \"#utility.yul\":2618:2840   */\n    tag_20:\n        /* \"#utility.yul\":2711:2715   */\n      0x00\n        /* \"#utility.yul\":2749:2751   */\n      0x20\n        /* \"#utility.yul\":2738:2747   */\n      dup3\n        /* \"#utility.yul\":2734:2752   */\n      add\n        /* \"#utility.yul\":2726:2752   */\n      swap1\n      pop\n        /* \"#utility.yul\":2762:2833   */\n      tag_165\n        /* \"#utility.yul\":2830:2831   */\n      0x00\n        /* \"#utility.yul\":2819:2828   */\n      dup4\n        /* \"#utility.yul\":2815:2832   */\n      add\n        /* \"#utility.yul\":2806:2812   */\n      dup5\n        /* \"#utility.yul\":2762:2833   */\n      tag_97\n      jump\t// in\n    tag_165:\n        /* \"#utility.yul\":2618:2840   */\n      swap3\n      swap2\n      pop\n      pop\n      jump\t// out\n        /* \"#utility.yul\":2846:2963   */\n    tag_98:\n        /* \"#utility.yul\":2955:2956   */\n      0x00\n        /* \"#utility.yul\":2952:2953   */\n      dup1\n        /* \"#utility.yul\":2945:2957   */\n      revert\n        /* \"#utility.yul\":2969:3086   */\n    tag_99:\n        /* \"#utility.yul\":3078:3079   */\n      0x00\n        /* \"#utility.yul\":3075:3076   */\n      dup1\n        /* \"#utility.yul\":3068:3080   */\n      revert\n        /* \"#utility.yul\":3092:3209   */\n    tag_100:\n        /* \"#utility.yul\":3201:3202   */\n      0x00\n        /* \"#utility.yul\":3198:3199   */\n      dup1\n        /* \"#utility.yul\":3191:3203   */\n      revert\n        /* \"#utility.yul\":3229:3782   */\n    tag_101:\n        /* \"#utility.yul\":3287:3295   */\n      0x00\n        /* \"#utility.yul\":3297:3303   */\n      dup1\n        /* \"#utility.yul\":3347:3350   */\n      dup4\n        /* \"#utility.yul\":3340:3344   */\n      0x1f\n        /* \"#utility.yul\":3332:3338   */\n      dup5\n        /* \"#utility.yul\":3328:3345   */\n      add\n        /* \"#utility.yul\":3324:3351   */\n      slt\n        /* \"#utility.yul\":3314:3436   */\n      tag_170\n      jumpi\n        /* \"#utility.yul\":3355:3434   */\n      tag_171\n      tag_98\n      jump\t// in\n    tag_171:\n        /* \"#utility.yul\":3314:3436   */\n    tag_170:\n        /* \"#utility.yul\":3468:3474   */\n      dup3\n        /* \"#utility.yul\":3455:3475   */\n      calldataload\n        /* \"#utility.yul\":3445:3475   */\n      swap1\n      pop\n        /* \"#utility.yul\":3498:3516   */\n      0xffffffffffffffff\n        /* \"#utility.yul\":3490:3496   */\n      dup2\n        /* \"#utility.yul\":3487:3517   */\n      gt\n        /* \"#utility.yul\":3484:3601   */\n      iszero\n      tag_172\n      jumpi\n        /* \"#utility.yul\":3520:3599   */\n      tag_173\n      tag_99\n      jump\t// in\n    tag_173:\n        /* \"#utility.yul\":3484:3601   */\n    tag_172:\n        /* \"#utility.yul\":3634:3638   */\n      0x20\n        /* \"#utility.yul\":3626:3632   */\n      dup4\n        /* \"#utility.yul\":3622:3639   */\n      add\n        /* \"#utility.yul\":3610:3639   */\n      swap2\n      pop\n        /* \"#utility.yul\":3688:3691   */\n      dup4\n        /* \"#utility.yul\":3680:3684   */\n      0x01\n        /* \"#utility.yul\":3672:3678   */\n      dup3\n        /* \"#utility.yul\":3668:3685   */\n      mul\n        /* \"#utility.yul\":3658:3666   */\n      dup4\n        /* \"#utility.yul\":3654:3686   */\n      add\n        /* \"#utility.yul\":3651:3692   */\n      gt\n        /* \"#utility.yul\":3648:3776   */\n      iszero\n      tag_174\n      jumpi\n        /* \"#utility.yul\":3695:3774   */\n      tag_175\n      tag_100\n      jump\t// in\n    tag_175:\n        /* \"#utility.yul\":3648:3776   */\n    tag_174:\n        /* \"#utility.yul\":3229:3782   */\n      swap3\n      pop\n      swap3\n      swap1\n      pop\n      jump\t// out\n        /* \"#utility.yul\":3788:4462   */\n    tag_23:\n        /* \"#utility.yul\":3868:3874   */\n      0x00\n        /* \"#utility.yul\":3876:3882   */\n      dup1\n        /* \"#utility.yul\":3884:3890   */\n      0x00\n        /* \"#utility.yul\":3933:3935   */\n      0x40\n        /* \"#utility.yul\":3921:3930   */\n      dup5\n        /* \"#utility.yul\":3912:3919   */\n      dup7\n        /* \"#utility.yul\":3908:3931   */\n      sub\n        /* \"#utility.yul\":3904:3936   */\n      slt\n        /* \"#utility.yul\":3901:4020   */\n      iszero\n      tag_177\n      jumpi\n        /* \"#utility.yul\":3939:4018   */\n      tag_178\n      tag_85\n      jump\t// in\n    tag_178:\n        /* \"#utility.yul\":3901:4020   */\n    tag_177:\n        /* \"#utility.yul\":4059:4060   */\n      0x00\n        /* \"#utility.yul\":4084:4137   */\n      tag_179\n        /* \"#utility.yul\":4129:4136   */\n      dup7\n        /* \"#utility.yul\":4120:4126   */\n      dup3\n        /* \"#utility.yul\":4109:4118   */\n      dup8\n        /* \"#utility.yul\":4105:4127   */\n      add\n        /* \"#utility.yul\":4084:4137   */\n      tag_89\n      jump\t// in\n    tag_179:\n        /* \"#utility.yul\":4074:4137   */\n      swap4\n      pop\n        /* \"#utility.yul\":4030:4147   */\n      pop\n        /* \"#utility.yul\":4214:4216   */\n      0x20\n        /* \"#utility.yul\":4203:4212   */\n      dup5\n        /* \"#utility.yul\":4199:4217   */\n      add\n        /* \"#utility.yul\":4186:4218   */\n      calldataload\n        /* \"#utility.yul\":4245:4263   */\n      0xffffffffffffffff\n        /* \"#utility.yul\":4237:4243   */\n      dup2\n        /* \"#utility.yul\":4234:4264   */\n      gt\n        /* \"#utility.yul\":4231:4348   */\n      iszero\n      tag_180\n      jumpi\n        /* \"#utility.yul\":4267:4346   */\n      tag_181\n      tag_86\n      jump\t// in\n    tag_181:\n        /* \"#utility.yul\":4231:4348   */\n    tag_180:\n        /* \"#utility.yul\":4380:4445   */\n      tag_182\n        /* \"#utility.yul\":4437:4444   */\n      dup7\n        /* \"#utility.yul\":4428:4434   */\n      dup3\n        /* \"#utility.yul\":4417:4426   */\n      dup8\n        /* \"#utility.yul\":4413:4435   */\n      add\n        /* \"#utility.yul\":4380:4445   */\n      tag_101\n      jump\t// in\n    tag_182:\n        /* \"#utility.yul\":4362:4445   */\n      swap3\n      pop\n      swap3\n      pop\n        /* \"#utility.yul\":4157:4455   */\n      pop\n        /* \"#utility.yul\":3788:4462   */\n      swap3\n      pop\n      swap3\n      pop\n      swap3\n      jump\t// out\n        /* \"#utility.yul\":4468:4590   */\n    tag_102:\n        /* \"#utility.yul\":4541:4565   */\n      tag_184\n        /* \"#utility.yul\":4559:4564   */\n      dup2\n        /* \"#utility.yul\":4541:4565   */\n      tag_96\n      jump\t// in\n    tag_184:\n        /* \"#utility.yul\":4534:4539   */\n      dup2\n        /* \"#utility.yul\":4531:4566   */\n      eq\n        /* \"#utility.yul\":4521:4584   */\n      tag_185\n      jumpi\n        /* \"#utility.yul\":4580:4581   */\n      0x00\n        /* \"#utility.yul\":4577:4578   */\n      dup1\n        /* \"#utility.yul\":4570:4582   */\n      revert\n        /* \"#utility.yul\":4521:4584   */\n    tag_185:\n        /* \"#utility.yul\":4468:4590   */\n      pop\n      jump\t// out\n        /* \"#utility.yul\":4596:4735   */\n    tag_103:\n        /* \"#utility.yul\":4642:4647   */\n      0x00\n        /* \"#utility.yul\":4680:4686   */\n      dup2\n        /* \"#utility.yul\":4667:4687   */\n      calldataload\n        /* \"#utility.yul\":4658:4687   */\n      swap1\n      pop\n        /* \"#utility.yul\":4696:4729   */\n      tag_187\n        /* \"#utility.yul\":4723:4728   */\n      dup2\n        /* \"#utility.yul\":4696:4729   */\n      tag_102\n      jump\t// in\n    tag_187:\n        /* \"#utility.yul\":4596:4735   */\n      swap3\n      swap2\n      pop\n      pop\n      jump\t// out\n        /* \"#utility.yul\":4741:5070   */\n    tag_31:\n        /* \"#utility.yul\":4800:4806   */\n      0x00\n        /* \"#utility.yul\":4849:4851   */\n      0x20\n        /* \"#utility.yul\":4837:4846   */\n      dup3\n        /* \"#utility.yul\":4828:4835   */\n      dup5\n        /* \"#utility.yul\":4824:4847   */\n      sub\n        /* \"#utility.yul\":4820:4852   */\n      slt\n        /* \"#utility.yul\":4817:4936   */\n      iszero\n      tag_189\n      jumpi\n        /* \"#utility.yul\":4855:4934   */\n      tag_190\n      tag_85\n      jump\t// in\n    tag_190:\n        /* \"#utility.yul\":4817:4936   */\n    tag_189:\n        /* \"#utility.yul\":4975:4976   */\n      0x00\n        /* \"#utility.yul\":5000:5053   */\n      tag_191\n        /* \"#utility.yul\":5045:5052   */\n      dup5\n        /* \"#utility.yul\":5036:5042   */\n      dup3\n        /* \"#utility.yul\":5025:5034   */\n      dup6\n        /* \"#utility.yul\":5021:5043   */\n      add\n        /* \"#utility.yul\":5000:5053   */\n      tag_103\n      jump\t// in\n    tag_191:\n        /* \"#utility.yul\":4990:5053   */\n      swap2\n      pop\n        /* \"#utility.yul\":4946:5063   */\n      pop\n        /* \"#utility.yul\":4741:5070   */\n      swap3\n      swap2\n      pop\n      pop\n      jump\t// out\n        /* \"#utility.yul\":5076:5605   */\n    tag_35:\n        /* \"#utility.yul\":5147:5153   */\n      0x00\n        /* \"#utility.yul\":5155:5161   */\n      dup1\n        /* \"#utility.yul\":5204:5206   */\n      0x20\n        /* \"#utility.yul\":5192:5201   */\n      dup4\n        /* \"#utility.yul\":5183:5190   */\n      dup6\n        /* \"#utility.yul\":5179:5202   */\n      sub\n        /* \"#utility.yul\":5175:5207   */\n      slt\n        /* \"#utility.yul\":5172:5291   */\n      iszero\n      tag_193\n      jumpi\n        /* \"#utility.yul\":5210:5289   */\n      tag_194\n      tag_85\n      jump\t// in\n    tag_194:\n        /* \"#utility.yul\":5172:5291   */\n    tag_193:\n        /* \"#utility.yul\":5358:5359   */\n      0x00\n        /* \"#utility.yul\":5347:5356   */\n      dup4\n        /* \"#utility.yul\":5343:5360   */\n      add\n        /* \"#utility.yul\":5330:5361   */\n      calldataload\n        /* \"#utility.yul\":5388:5406   */\n      0xffffffffffffffff\n        /* \"#utility.yul\":5380:5386   */\n      dup2\n        /* \"#utility.yul\":5377:5407   */\n      gt\n        /* \"#utility.yul\":5374:5491   */\n      iszero\n      tag_195\n      jumpi\n        /* \"#utility.yul\":5410:5489   */\n      tag_196\n      tag_86\n      jump\t// in\n    tag_196:\n        /* \"#utility.yul\":5374:5491   */\n    tag_195:\n        /* \"#utility.yul\":5523:5588   */\n      tag_197\n        /* \"#utility.yul\":5580:5587   */\n      dup6\n        /* \"#utility.yul\":5571:5577   */\n      dup3\n        /* \"#utility.yul\":5560:5569   */\n      dup7\n        /* \"#utility.yul\":5556:5578   */\n      add\n        /* \"#utility.yul\":5523:5588   */\n      tag_101\n      jump\t// in\n    tag_197:\n        /* \"#utility.yul\":5505:5588   */\n      swap3\n      pop\n      swap3\n      pop\n        /* \"#utility.yul\":5301:5598   */\n      pop\n        /* \"#utility.yul\":5076:5605   */\n      swap3\n      pop\n      swap3\n      swap1\n      pop\n      jump\t// out\n        /* \"#utility.yul\":5611:5725   */\n    tag_104:\n        /* \"#utility.yul\":5678:5684   */\n      0x00\n        /* \"#utility.yul\":5712:5717   */\n      dup2\n        /* \"#utility.yul\":5706:5718   */\n      mload\n        /* \"#utility.yul\":5696:5718   */\n      swap1\n      pop\n        /* \"#utility.yul\":5611:5725   */\n      swap2\n      swap1\n      pop\n      jump\t// out\n        /* \"#utility.yul\":5731:5915   */\n    tag_105:\n        /* \"#utility.yul\":5830:5841   */\n      0x00\n        /* \"#utility.yul\":5864:5870   */\n      dup3\n        /* \"#utility.yul\":5859:5862   */\n      dup3\n        /* \"#utility.yul\":5852:5871   */\n      mstore\n        /* \"#utility.yul\":5904:5908   */\n      0x20\n        /* \"#utility.yul\":5899:5902   */\n      dup3\n        /* \"#utility.yul\":5895:5909   */\n      add\n        /* \"#utility.yul\":5880:5909   */\n      swap1\n      pop\n        /* \"#utility.yul\":5731:5915   */\n      swap3\n      swap2\n      pop\n      pop\n      jump\t// out\n        /* \"#utility.yul\":5921:6053   */\n    tag_106:\n        /* \"#utility.yul\":5988:5992   */\n      0x00\n        /* \"#utility.yul\":6011:6014   */\n      dup2\n        /* \"#utility.yul\":6003:6014   */\n      swap1\n      pop\n        /* \"#utility.yul\":6041:6045   */\n      0x20\n        /* \"#utility.yul\":6036:6039   */\n      dup3\n        /* \"#utility.yul\":6032:6046   */\n      add\n        /* \"#utility.yul\":6024:6046   */\n      swap1\n      pop\n        /* \"#utility.yul\":5921:6053   */\n      swap2\n      swap1\n      pop\n      jump\t// out\n        /* \"#utility.yul\":6059:6167   */\n    tag_107:\n        /* \"#utility.yul\":6136:6160   */\n      tag_202\n        /* \"#utility.yul\":6154:6159   */\n      dup2\n        /* \"#utility.yul\":6136:6160   */\n      tag_87\n      jump\t// in\n    tag_202:\n        /* \"#utility.yul\":6131:6134   */\n      dup3\n        /* \"#utility.yul\":6124:6161   */\n      mstore\n        /* \"#utility.yul\":6059:6167   */\n      pop\n      pop\n      jump\t// out\n        /* \"#utility.yul\":6173:6352   */\n    tag_108:\n        /* \"#utility.yul\":6242:6252   */\n      0x00\n        /* \"#utility.yul\":6263:6309   */\n      tag_204\n        /* \"#utility.yul\":6305:6308   */\n      dup4\n        /* \"#utility.yul\":6297:6303   */\n      dup4\n        /* \"#utility.yul\":6263:6309   */\n      tag_107\n      jump\t// in\n    tag_204:\n        /* \"#utility.yul\":6341:6345   */\n      0x20\n        /* \"#utility.yul\":6336:6339   */\n      dup4\n        /* \"#utility.yul\":6332:6346   */\n      add\n        /* \"#utility.yul\":6318:6346   */\n      swap1\n      pop\n        /* \"#utility.yul\":6173:6352   */\n      swap3\n      swap2\n      pop\n      pop\n      jump\t// out\n        /* \"#utility.yul\":6358:6471   */\n    tag_109:\n        /* \"#utility.yul\":6428:6432   */\n      0x00\n        /* \"#utility.yul\":6460:6464   */\n      0x20\n        /* \"#utility.yul\":6455:6458   */\n      dup3\n        /* \"#utility.yul\":6451:6465   */\n      add\n        /* \"#utility.yul\":6443:6465   */\n      swap1\n      pop\n        /* \"#utility.yul\":6358:6471   */\n      swap2\n      swap1\n      pop\n      jump\t// out\n        /* \"#utility.yul\":6507:7239   */\n    tag_110:\n        /* \"#utility.yul\":6626:6629   */\n      0x00\n        /* \"#utility.yul\":6655:6709   */\n      tag_207\n        /* \"#utility.yul\":6703:6708   */\n      dup3\n        /* \"#utility.yul\":6655:6709   */\n      tag_104\n      jump\t// in\n    tag_207:\n        /* \"#utility.yul\":6725:6811   */\n      tag_208\n        /* \"#utility.yul\":6804:6810   */\n      dup2\n        /* \"#utility.yul\":6799:6802   */\n      dup6\n        /* \"#utility.yul\":6725:6811   */\n      tag_105\n      jump\t// in\n    tag_208:\n        /* \"#utility.yul\":6718:6811   */\n      swap4\n      pop\n        /* \"#utility.yul\":6835:6891   */\n      tag_209\n        /* \"#utility.yul\":6885:6890   */\n      dup4\n        /* \"#utility.yul\":6835:6891   */\n      tag_106\n      jump\t// in\n    tag_209:\n        /* \"#utility.yul\":6914:6921   */\n      dup1\n        /* \"#utility.yul\":6945:6946   */\n      0x00\n        /* \"#utility.yul\":6930:7214   */\n    tag_210:\n        /* \"#utility.yul\":6955:6961   */\n      dup4\n        /* \"#utility.yul\":6952:6953   */\n      dup2\n        /* \"#utility.yul\":6949:6962   */\n      lt\n        /* \"#utility.yul\":6930:7214   */\n      iszero\n      tag_212\n      jumpi\n        /* \"#utility.yul\":7031:7037   */\n      dup2\n        /* \"#utility.yul\":7025:7038   */\n      mload\n        /* \"#utility.yul\":7058:7121   */\n      tag_213\n        /* \"#utility.yul\":7117:7120   */\n      dup9\n        /* \"#utility.yul\":7102:7115   */\n      dup3\n        /* \"#utility.yul\":7058:7121   */\n      tag_108\n      jump\t// in\n    tag_213:\n        /* \"#utility.yul\":7051:7121   */\n      swap8\n      pop\n        /* \"#utility.yul\":7144:7204   */\n      tag_214\n        /* \"#utility.yul\":7197:7203   */\n      dup4\n        /* \"#utility.yul\":7144:7204   */\n      tag_109\n      jump\t// in\n    tag_214:\n        /* \"#utility.yul\":7134:7204   */\n      swap3\n      pop\n        /* \"#utility.yul\":6990:7214   */\n      pop\n        /* \"#utility.yul\":6977:6978   */\n      0x01\n        /* \"#utility.yul\":6974:6975   */\n      dup2\n        /* \"#utility.yul\":6970:6979   */\n      add\n        /* \"#utility.yul\":6965:6979   */\n      swap1\n      pop\n        /* \"#utility.yul\":6930:7214   */\n      jump(tag_210)\n    tag_212:\n        /* \"#utility.yul\":6934:6948   */\n      pop\n        /* \"#utility.yul\":7230:7233   */\n      dup6\n        /* \"#utility.yul\":7223:7233   */\n      swap4\n      pop\n        /* \"#utility.yul\":6631:7239   */\n      pop\n      pop\n      pop\n        /* \"#utility.yul\":6507:7239   */\n      swap3\n      swap2\n      pop\n      pop\n      jump\t// out\n        /* \"#utility.yul\":7245:7618   */\n    tag_41:\n        /* \"#utility.yul\":7388:7392   */\n      0x00\n        /* \"#utility.yul\":7426:7428   */\n      0x20\n        /* \"#utility.yul\":7415:7424   */\n      dup3\n        /* \"#utility.yul\":7411:7429   */\n      add\n        /* \"#utility.yul\":7403:7429   */\n      swap1\n      pop\n        /* \"#utility.yul\":7475:7484   */\n      dup2\n        /* \"#utility.yul\":7469:7473   */\n      dup2\n        /* \"#utility.yul\":7465:7485   */\n      sub\n        /* \"#utility.yul\":7461:7462   */\n      0x00\n        /* \"#utility.yul\":7450:7459   */\n      dup4\n        /* \"#utility.yul\":7446:7463   */\n      add\n        /* \"#utility.yul\":7439:7486   */\n      mstore\n        /* \"#utility.yul\":7503:7611   */\n      tag_216\n        /* \"#utility.yul\":7606:7610   */\n      dup2\n        /* \"#utility.yul\":7597:7603   */\n      dup5\n        /* \"#utility.yul\":7503:7611   */\n      tag_110\n      jump\t// in\n    tag_216:\n        /* \"#utility.yul\":7495:7611   */\n      swap1\n      pop\n        /* \"#utility.yul\":7245:7618   */\n      swap3\n      swap2\n      pop\n      pop\n      jump\t// out\n        /* \"#utility.yul\":7624:7804   */\n    tag_111:\n        /* \"#utility.yul\":7672:7749   */\n      0x4e487b7100000000000000000000000000000000000000000000000000000000\n        /* \"#utility.yul\":7669:7670   */\n      0x00\n        /* \"#utility.yul\":7662:7750   */\n      mstore\n        /* \"#utility.yul\":7769:7773   */\n      0x22\n        /* \"#utility.yul\":7766:7767   */\n      0x04\n        /* \"#utility.yul\":7759:7774   */\n      mstore\n        /* \"#utility.yul\":7793:7797   */\n      0x24\n        /* \"#utility.yul\":7790:7791   */\n      0x00\n        /* \"#utility.yul\":7783:7798   */\n      revert\n        /* \"#utility.yul\":7810:8130   */\n    tag_46:\n        /* \"#utility.yul\":7854:7860   */\n      0x00\n        /* \"#utility.yul\":7891:7892   */\n      0x02\n        /* \"#utility.yul\":7885:7889   */\n      dup3\n        /* \"#utility.yul\":7881:7893   */\n      div\n        /* \"#utility.yul\":7871:7893   */\n      swap1\n      pop\n        /* \"#utility.yul\":7938:7939   */\n      0x01\n        /* \"#utility.yul\":7932:7936   */\n      dup3\n        /* \"#utility.yul\":7928:7940   */\n      and\n        /* \"#utility.yul\":7959:7977   */\n      dup1\n        /* \"#utility.yul\":7949:8030   */\n      tag_219\n      jumpi\n        /* \"#utility.yul\":8015:8019   */\n      0x7f\n        /* \"#utility.yul\":8007:8013   */\n      dup3\n        /* \"#utility.yul\":8003:8020   */\n      and\n        /* \"#utility.yul\":7993:8020   */\n      swap2\n      pop\n        /* \"#utility.yul\":7949:8030   */\n    tag_219:\n        /* \"#utility.yul\":8077:8079   */\n      0x20\n        /* \"#utility.yul\":8069:8075   */\n      dup3\n        /* \"#utility.yul\":8066:8080   */\n      lt\n        /* \"#utility.yul\":8046:8064   */\n      dup2\n        /* \"#utility.yul\":8043:8081   */\n      sub\n        /* \"#utility.yul\":8040:8124   */\n      tag_220\n      jumpi\n        /* \"#utility.yul\":8096:8114   */\n      tag_221\n      tag_111\n      jump\t// in\n    tag_221:\n        /* \"#utility.yul\":8040:8124   */\n    tag_220:\n        /* \"#utility.yul\":7861:8130   */\n      pop\n        /* \"#utility.yul\":7810:8130   */\n      swap2\n      swap1\n      pop\n      jump\t// out\n        /* \"#utility.yul\":8136:8233   */\n    tag_112:\n        /* \"#utility.yul\":8195:8201   */\n      0x00\n        /* \"#utility.yul\":8223:8226   */\n      dup3\n        /* \"#utility.yul\":8213:8226   */\n      swap1\n      pop\n        /* \"#utility.yul\":8136:8233   */\n      swap3\n      swap2\n      pop\n      pop\n      jump\t// out\n        /* \"#utility.yul\":8239:8419   */\n    tag_113:\n        /* \"#utility.yul\":8287:8364   */\n      0x4e487b7100000000000000000000000000000000000000000000000000000000\n        /* \"#utility.yul\":8284:8285   */\n      0x00\n        /* \"#utility.yul\":8277:8365   */\n      mstore\n        /* \"#utility.yul\":8384:8388   */\n      0x41\n        /* \"#utility.yul\":8381:8382   */\n      0x04\n        /* \"#utility.yul\":8374:8389   */\n      mstore\n        /* \"#utility.yul\":8408:8412   */\n      0x24\n        /* \"#utility.yul\":8405:8406   */\n      0x00\n        /* \"#utility.yul\":8398:8413   */\n      revert\n        /* \"#utility.yul\":8425:8566   */\n    tag_114:\n        /* \"#utility.yul\":8474:8478   */\n      0x00\n        /* \"#utility.yul\":8497:8500   */\n      dup2\n        /* \"#utility.yul\":8489:8500   */\n      swap1\n      pop\n        /* \"#utility.yul\":8520:8523   */\n      dup2\n        /* \"#utility.yul\":8517:8518   */\n      0x00\n        /* \"#utility.yul\":8510:8524   */\n      mstore\n        /* \"#utility.yul\":8554:8558   */\n      0x20\n        /* \"#utility.yul\":8551:8552   */\n      0x00\n        /* \"#utility.yul\":8541:8559   */\n      keccak256\n        /* \"#utility.yul\":8533:8559   */\n      swap1\n      pop\n        /* \"#utility.yul\":8425:8566   */\n      swap2\n      swap1\n      pop\n      jump\t// out\n        /* \"#utility.yul\":8572:8665   */\n    tag_115:\n        /* \"#utility.yul\":8609:8615   */\n      0x00\n        /* \"#utility.yul\":8656:8658   */\n      0x20\n        /* \"#utility.yul\":8651:8653   */\n      0x1f\n        /* \"#utility.yul\":8644:8649   */\n      dup4\n        /* \"#utility.yul\":8640:8654   */\n      add\n        /* \"#utility.yul\":8636:8659   */\n      div\n        /* \"#utility.yul\":8626:8659   */\n      swap1\n      pop\n        /* \"#utility.yul\":8572:8665   */\n      swap2\n      swap1\n      pop\n      jump\t// out\n        /* \"#utility.yul\":8671:8778   */\n    tag_116:\n        /* \"#utility.yul\":8715:8723   */\n      0x00\n        /* \"#utility.yul\":8765:8770   */\n      dup3\n        /* \"#utility.yul\":8759:8763   */\n      dup3\n        /* \"#utility.yul\":8755:8771   */\n      shl\n        /* \"#utility.yul\":8734:8771   */\n      swap1\n      pop\n        /* \"#utility.yul\":8671:8778   */\n      swap3\n      swap2\n      pop\n      pop\n      jump\t// out\n        /* \"#utility.yul\":8784:9177   */\n    tag_117:\n        /* \"#utility.yul\":8853:8859   */\n      0x00\n        /* \"#utility.yul\":8903:8904   */\n      0x08\n        /* \"#utility.yul\":8891:8901   */\n      dup4\n        /* \"#utility.yul\":8887:8905   */\n      mul\n        /* \"#utility.yul\":8926:9023   */\n      tag_228\n        /* \"#utility.yul\":8956:9022   */\n      0xffffffffffffffffffffffffffffffffffffffffffffffffffffffffffffffff\n        /* \"#utility.yul\":8945:8954   */\n      dup3\n        /* \"#utility.yul\":8926:9023   */\n      tag_116\n      jump\t// in\n    tag_228:\n        /* \"#utility.yul\":9044:9083   */\n      tag_229\n        /* \"#utility.yul\":9074:9082   */\n      dup7\n        /* \"#utility.yul\":9063:9072   */\n      dup4\n        /* \"#utility.yul\":9044:9083   */\n      tag_116\n      jump\t// in\n    tag_229:\n        /* \"#utility.yul\":9032:9083   */\n      swap6\n      pop\n        /* \"#utility.yul\":9116:9120   */\n      dup1\n        /* \"#utility.yul\":9112:9121   */\n      not\n        /* \"#utility.yul\":9105:9110   */\n      dup5\n        /* \"#utility.yul\":9101:9122   */\n      and\n        /* \"#utility.yul\":9092:9122   */\n      swap4\n      pop\n        /* \"#utility.yul\":9165:9169   */\n      dup1\n        /* \"#utility.yul\":9155:9163   */\n      dup7\n        /* \"#utility.yul\":9151:9170   */\n      and\n        /* \"#utility.yul\":9144:9149   */\n      dup5\n        /* \"#utility.yul\":9141:9171   */\n      or\n        /* \"#utility.yul\":9131:9171   */\n      swap3\n      pop\n        /* \"#utility.yul\":8860:9177   */\n      pop\n      pop\n        /* \"#utility.yul\":8784:9177   */\n      swap4\n      swap3\n      pop\n      pop\n      pop\n      jump\t// out\n        /* \"#utility.yul\":9183:9243   */\n    tag_118:\n        /* \"#utility.yul\":9211:9214   */\n      0x00\n        /* \"#utility.yul\":9232:9237   */\n      dup2\n        /* \"#utility.yul\":9225:9237   */\n      swap1\n      pop\n        /* \"#utility.yul\":9183:9243   */\n      swap2\n      swap1\n      pop\n      jump\t// out\n        /* \"#utility.yul\":9249:9391   */\n    tag_119:\n        /* \"#utility.yul\":9299:9308   */\n      0x00\n        /* \"#utility.yul\":9332:9385   */\n      tag_232\n        /* \"#utility.yul\":9350:9384   */\n      tag_233\n        /* \"#utility.yul\":9359:9383   */\n      tag_234\n        /* \"#utility.yul\":9377:9382   */\n      dup5\n        /* \"#utility.yul\":9359:9383   */\n      tag_87\n      jump\t// in\n    tag_234:\n        /* \"#utility.yul\":9350:9384   */\n      tag_118\n      jump\t// in\n    tag_233:\n        /* \"#utility.yul\":9332:9385   */\n      tag_87\n      jump\t// in\n    tag_232:\n        /* \"#utility.yul\":9319:9385   */\n      swap1\n      pop\n        /* \"#utility.yul\":9249:9391   */\n      swap2\n      swap1\n      pop\n      jump\t// out\n        /* \"#utility.yul\":9397:9472   */\n    tag_120:\n        /* \"#utility.yul\":9440:9443   */\n      0x00\n        /* \"#utility.yul\":9461:9466   */\n      dup2\n        /* \"#utility.yul\":9454:9466   */\n      swap1\n      pop\n        /* \"#utility.yul\":9397:9472   */\n      swap2\n      swap1\n      pop\n      jump\t// out\n        /* \"#utility.yul\":9478:9747   */\n    tag_121:\n        /* \"#utility.yul\":9588:9627   */\n      tag_237\n        /* \"#utility.yul\":9619:9626   */\n      dup4\n        /* \"#utility.yul\":9588:9627   */\n      tag_119\n      jump\t// in\n    tag_237:\n        /* \"#utility.yul\":9649:9740   */\n      tag_238\n        /* \"#utility.yul\":9698:9739   */\n      tag_239\n        /* \"#utility.yul\":9722:9738   */\n      dup3\n        /* \"#utility.yul\":9698:9739   */\n      tag_120\n      jump\t// in\n    tag_239:\n        /* \"#utility.yul\":9690:9696   */\n      dup5\n        /* \"#utility.yul\":9683:9687   */\n      dup5\n        /* \"#utility.yul\":9677:9688   */\n      sload\n        /* \"#utility.yul\":9649:9740   */\n      tag_117\n      jump\t// in\n    tag_238:\n        /* \"#utility.yul\":9643:9647   */\n      dup3\n        /* \"#utility.yul\":9636:9741   */\n      sstore\n        /* \"#utility.yul\":9554:9747   */\n      pop\n        /* \"#utility.yul\":9478:9747   */\n      pop\n      pop\n      pop\n      jump\t// out\n        /* \"#utility.yul\":9753:9826   */\n    tag_122:\n        /* \"#utility.yul\":9798:9801   */\n      0x00\n        /* \"#utility.yul\":9753:9826   */\n      swap1\n      jump\t// out\n        /* \"#utility.yul\":9832:10021   */\n    tag_123:\n        /* \"#utility.yul\":9909:9941   */\n      tag_242\n      tag_122\n      jump\t// in\n    tag_242:\n        /* \"#utility.yul\":9950:10015   */\n      tag_243\n        /* \"#utility.yul\":10008:10014   */\n      dup2\n        /* \"#utility.yul\":10000:10006   */\n      dup5\n        /* \"#utility.yul\":9994:9998   */\n      dup5\n        /* \"#utility.yul\":9950:10015   */\n      tag_121\n      jump\t// in\n    tag_243:\n        /* \"#utility.yul\":9885:10021   */\n      pop\n        /* \"#utility.yul\":9832:10021   */\n      pop\n      pop\n      jump\t// out\n        /* \"#utility.yul\":10027:10213   */\n    tag_124:\n        /* \"#utility.yul\":10087:10207   */\n    tag_245:\n        /* \"#utility.yul\":10104:10107   */\n      dup2\n        /* \"#utility.yul\":10097:10102   */\n      dup2\n        /* \"#utility.yul\":10094:10108   */\n      lt\n        /* \"#utility.yul\":10087:10207   */\n      iszero\n      tag_247\n      jumpi\n        /* \"#utility.yul\":10158:10197   */\n      tag_248\n        /* \"#utility.yul\":10195:10196   */\n      0x00\n        /* \"#utility.yul\":10188:10193   */\n      dup3\n        /* \"#utility.yul\":10158:10197   */\n      tag_123\n      jump\t// in\n    tag_248:\n        /* \"#utility.yul\":10131:10132   */\n      0x01\n        /* \"#utility.yul\":10124:10129   */\n      dup2\n        /* \"#utility.yul\":10120:10133   */\n      add\n        /* \"#utility.yul\":10111:10133   */\n      swap1\n      pop\n        /* \"#utility.yul\":10087:10207   */\n      jump(tag_245)\n    tag_247:\n        /* \"#utility.yul\":10027:10213   */\n      pop\n      pop\n      jump\t// out\n        /* \"#utility.yul\":10219:10762   */\n    tag_125:\n        /* \"#utility.yul\":10320:10322   */\n      0x1f\n        /* \"#utility.yul\":10315:10318   */\n      dup3\n        /* \"#utility.yul\":10312:10323   */\n      gt\n        /* \"#utility.yul\":10309:10755   */\n      iszero\n      tag_250\n      jumpi\n        /* \"#utility.yul\":10354:10392   */\n      tag_251\n        /* \"#utility.yul\":10386:10391   */\n      dup2\n        /* \"#utility.yul\":10354:10392   */\n      tag_114\n      jump\t// in\n    tag_251:\n        /* \"#utility.yul\":10438:10467   */\n      tag_252\n        /* \"#utility.yul\":10456:10466   */\n      dup5\n        /* \"#utility.yul\":10438:10467   */\n      tag_115\n      jump\t// in\n    tag_252:\n        /* \"#utility.yul\":10428:10436   */\n      dup2\n        /* \"#utility.yul\":10424:10468   */\n      add\n        /* \"#utility.yul\":10621:10623   */\n      0x20\n        /* \"#utility.yul\":10609:10619   */\n      dup6\n        /* \"#utility.yul\":10606:10624   */\n      lt\n        /* \"#utility.yul\":10603:10652   */\n      iszero\n      tag_253\n      jumpi\n        /* \"#utility.yul\":10642:10650   */\n      dup2\n        /* \"#utility.yul\":10627:10650   */\n      swap1\n      pop\n        /* \"#utility.yul\":10603:10652   */\n    tag_253:\n        /* \"#utility.yul\":10665:10745   */\n      tag_254\n        /* \"#utility.yul\":10721:10743   */\n      tag_255\n        /* \"#utility.yul\":10739:10742   */\n      dup6\n        /* \"#utility.yul\":10721:10743   */\n      tag_115\n      jump\t// in\n    tag_255:\n        /* \"#utility.yul\":10711:10719   */\n      dup4\n        /* \"#utility.yul\":10707:10744   */\n      add\n        /* \"#utility.yul\":10694:10705   */\n      dup3\n        /* \"#utility.yul\":10665:10745   */\n      tag_124\n      jump\t// in\n    tag_254:\n        /* \"#utility.yul\":10324:10755   */\n      pop\n      pop\n        /* \"#utility.yul\":10309:10755   */\n    tag_250:\n        /* \"#utility.yul\":10219:10762   */\n      pop\n      pop\n      pop\n      jump\t// out\n        /* \"#utility.yul\":10768:10885   */\n    tag_126:\n        /* \"#utility.yul\":10822:10830   */\n      0x00\n        /* \"#utility.yul\":10872:10877   */\n      dup3\n        /* \"#utility.yul\":10866:10870   */\n      dup3\n        /* \"#utility.yul\":10862:10878   */\n      shr\n        /* \"#utility.yul\":10841:10878   */\n      swap1\n      pop\n        /* \"#utility.yul\":10768:10885   */\n      swap3\n      swap2\n      pop\n      pop\n      jump\t// out\n        /* \"#utility.yul\":10891:11060   */\n    tag_127:\n        /* \"#utility.yul\":10935:10941   */\n      0x00\n        /* \"#utility.yul\":10968:11019   */\n      tag_258\n        /* \"#utility.yul\":11016:11017   */\n      0x00\n        /* \"#utility.yul\":11012:11018   */\n      not\n        /* \"#utility.yul\":11004:11009   */\n      dup5\n        /* \"#utility.yul\":11001:11002   */\n      0x08\n        /* \"#utility.yul\":10997:11010   */\n      mul\n        /* \"#utility.yul\":10968:11019   */\n      tag_126\n      jump\t// in\n    tag_258:\n        /* \"#utility.yul\":10964:11020   */\n      not\n        /* \"#utility.yul\":11049:11053   */\n      dup1\n        /* \"#utility.yul\":11043:11047   */\n      dup4\n        /* \"#utility.yul\":11039:11054   */\n      and\n        /* \"#utility.yul\":11029:11054   */\n      swap2\n      pop\n        /* \"#utility.yul\":10942:11060   */\n      pop\n        /* \"#utility.yul\":10891:11060   */\n      swap3\n      swap2\n      pop\n      pop\n      jump\t// out\n        /* \"#utility.yul\":11065:11360   */\n    tag_128:\n        /* \"#utility.yul\":11141:11145   */\n      0x00\n        /* \"#utility.yul\":11287:11316   */\n      tag_260\n        /* \"#utility.yul\":11312:11315   */\n      dup4\n        /* \"#utility.yul\":11306:11310   */\n      dup4\n        /* \"#utility.yul\":11287:11316   */\n      tag_127\n      jump\t// in\n    tag_260:\n        /* \"#utility.yul\":11279:11316   */\n      swap2\n      pop\n        /* \"#utility.yul\":11349:11352   */\n      dup3\n        /* \"#utility.yul\":11346:11347   */\n      0x02\n        /* \"#utility.yul\":11342:11353   */\n      mul\n        /* \"#utility.yul\":11336:11340   */\n      dup3\n        /* \"#utility.yul\":11333:11354   */\n      or\n        /* \"#utility.yul\":11325:11354   */\n      swap1\n      pop\n        /* \"#utility.yul\":11065:11360   */\n      swap3\n      swap2\n      pop\n      pop\n      jump\t// out\n        /* \"#utility.yul\":11365:12768   */\n    tag_59:\n        /* \"#utility.yul\":11489:11533   */\n      tag_262\n        /* \"#utility.yul\":11529:11532   */\n      dup4\n        /* \"#utility.yul\":11524:11527   */\n      dup4\n        /* \"#utility.yul\":11489:11533   */\n      tag_112\n      jump\t// in\n    tag_262:\n        /* \"#utility.yul\":11598:11616   */\n      0xffffffffffffffff\n        /* \"#utility.yul\":11590:11596   */\n      dup2\n        /* \"#utility.yul\":11587:11617   */\n      gt\n        /* \"#utility.yul\":11584:11640   */\n      iszero\n      tag_263\n      jumpi\n        /* \"#utility.yul\":11620:11638   */\n      tag_264\n      tag_113\n      jump\t// in\n    tag_264:\n        /* \"#utility.yul\":11584:11640   */\n    tag_263:\n        /* \"#utility.yul\":11664:11702   */\n      tag_265\n        /* \"#utility.yul\":11696:11700   */\n      dup3\n        /* \"#utility.yul\":11690:11701   */\n      sload\n        /* \"#utility.yul\":11664:11702   */\n      tag_46\n      jump\t// in\n    tag_265:\n        /* \"#utility.yul\":11749:11816   */\n      tag_266\n        /* \"#utility.yul\":11809:11815   */\n      dup3\n        /* \"#utility.yul\":11801:11807   */\n      dup3\n        /* \"#utility.yul\":11795:11799   */\n      dup6\n        /* \"#utility.yul\":11749:11816   */\n      tag_125\n      jump\t// in\n    tag_266:\n        /* \"#utility.yul\":11843:11844   */\n      0x00\n        /* \"#utility.yul\":11872:11874   */\n      0x1f\n        /* \"#utility.yul\":11864:11870   */\n      dup4\n        /* \"#utility.yul\":11861:11875   */\n      gt\n        /* \"#utility.yul\":11889:11890   */\n      0x01\n        /* \"#utility.yul\":11884:12516   */\n      dup2\n      eq\n      tag_268\n      jumpi\n        /* \"#utility.yul\":12560:12561   */\n      0x00\n        /* \"#utility.yul\":12577:12583   */\n      dup5\n        /* \"#utility.yul\":12574:12658   */\n      iszero\n      tag_269\n      jumpi\n        /* \"#utility.yul\":12633:12642   */\n      dup3\n        /* \"#utility.yul\":12628:12631   */\n      dup8\n        /* \"#utility.yul\":12624:12643   */\n      add\n        /* \"#utility.yul\":12611:12644   */\n      calldataload\n        /* \"#utility.yul\":12602:12644   */\n      swap1\n      pop\n        /* \"#utility.yul\":12574:12658   */\n    tag_269:\n        /* \"#utility.yul\":12684:12751   */\n      tag_270\n        /* \"#utility.yul\":12744:12750   */\n      dup6\n        /* \"#utility.yul\":12737:12742   */\n      dup3\n        /* \"#utility.yul\":12684:12751   */\n      tag_128\n      jump\t// in\n    tag_270:\n        /* \"#utility.yul\":12678:12682   */\n      dup7\n        /* \"#utility.yul\":12671:12752   */\n      sstore\n        /* \"#utility.yul\":12533:12762   */\n      pop\n        /* \"#utility.yul\":11854:12762   */\n      jump(tag_267)\n        /* \"#utility.yul\":11884:12516   */\n    tag_268:\n        /* \"#utility.yul\":11936:11940   */\n      0x1f\n        /* \"#utility.yul\":11932:11941   */\n      not\n        /* \"#utility.yul\":11924:11930   */\n      dup5\n        /* \"#utility.yul\":11920:11942   */\n      and\n        /* \"#utility.yul\":11970:12007   */\n      tag_271\n        /* \"#utility.yul\":12002:12006   */\n      dup7\n        /* \"#utility.yul\":11970:12007   */\n      tag_114\n      jump\t// in\n    tag_271:\n        /* \"#utility.yul\":12029:12030   */\n      0x00\n        /* \"#utility.yul\":12043:12258   */\n    tag_272:\n        /* \"#utility.yul\":12057:12064   */\n      dup3\n        /* \"#utility.yul\":12054:12055   */\n      dup2\n        /* \"#utility.yul\":12051:12065   */\n      lt\n        /* \"#utility.yul\":12043:12258   */\n      iszero\n      tag_274\n      jumpi\n        /* \"#utility.yul\":12143:12152   */\n      dup5\n        /* \"#utility.yul\":12138:12141   */\n      dup10\n        /* \"#utility.yul\":12134:12153   */\n      add\n        /* \"#utility.yul\":12121:12154   */\n      calldataload\n        /* \"#utility.yul\":12113:12119   */\n      dup3\n        /* \"#utility.yul\":12106:12155   */\n      sstore\n        /* \"#utility.yul\":12194:12195   */\n      0x01\n        /* \"#utility.yul\":12186:12192   */\n      dup3\n        /* \"#utility.yul\":12182:12196   */\n      add\n        /* \"#utility.yul\":12172:12196   */\n      swap2\n      pop\n        /* \"#utility.yul\":12241:12243   */\n      0x20\n        /* \"#utility.yul\":12230:12239   */\n      dup6\n        /* \"#utility.yul\":12226:12244   */\n      add\n        /* \"#utility.yul\":12213:12244   */\n      swap5\n      pop\n        /* \"#utility.yul\":12080:12084   */\n      0x20\n        /* \"#utility.yul\":12077:12078   */\n      dup2\n        /* \"#utility.yul\":12073:12085   */\n      add\n        /* \"#utility.yul\":12068:12085   */\n      swap1\n      pop\n        /* \"#utility.yul\":12043:12258   */\n      jump(tag_272)\n    tag_274:\n        /* \"#utility.yul\":12286:12292   */\n      dup7\n        /* \"#utility.yul\":12277:12284   */\n      dup4\n        /* \"#utility.yul\":12274:12293   */\n      lt\n        /* \"#utility.yul\":12271:12457   */\n      iszero\n      tag_275\n      jumpi\n        /* \"#utility.yul\":12351:12360   */\n      dup5\n        /* \"#utility.yul\":12346:12349   */\n      dup10\n        /* \"#utility.yul\":12342:12361   */\n      add\n        /* \"#utility.yul\":12329:12362   */\n      calldataload\n        /* \"#utility.yul\":12394:12442   */\n      tag_276\n        /* \"#utility.yul\":12436:12440   */\n      0x1f\n        /* \"#utility.yul\":12428:12434   */\n      dup10\n        /* \"#utility.yul\":12424:12441   */\n      and\n        /* \"#utility.yul\":12413:12422   */\n      dup3\n        /* \"#utility.yul\":12394:12442   */\n      tag_127\n      jump\t// in\n    tag_276:\n        /* \"#utility.yul\":12386:12392   */\n      dup4\n        /* \"#utility.yul\":12379:12443   */\n      sstore\n        /* \"#utility.yul\":12294:12457   */\n      pop\n        /* \"#utility.yul\":12271:12457   */\n    tag_275:\n        /* \"#utility.yul\":12503:12504   */\n      0x01\n        /* \"#utility.yul\":12499:12500   */\n      0x02\n        /* \"#utility.yul\":12491:12497   */\n      dup9\n        /* \"#utility.yul\":12487:12501   */\n      mul\n        /* \"#utility.yul\":12483:12505   */\n      add\n        /* \"#utility.yul\":12477:12481   */\n      dup9\n        /* \"#utility.yul\":12470:12506   */\n      sstore\n        /* \"#utility.yul\":11891:12516   */\n      pop\n      pop\n      pop\n        /* \"#utility.yul\":11854:12762   */\n    tag_267:\n      pop\n        /* \"#utility.yul\":11464:12768   */\n      pop\n      pop\n      pop\n        /* \"#utility.yul\":11365:12768   */\n      pop\n      pop\n      pop\n      jump\t// out\n        /* \"#utility.yul\":12774:12859   */\n    tag_129:\n        /* \"#utility.yul\":12819:12826   */\n      0x00\n        /* \"#utility.yul\":12848:12853   */\n      dup2\n        /* \"#utility.yul\":12837:12853   */\n      swap1\n      pop\n        /* \"#utility.yul\":12774:12859   */\n      swap2\n      swap1\n      pop\n      jump\t// out\n        /* \"#utility.yul\":12865:12966   */\n    tag_130:\n        /* \"#utility.yul\":12901:12908   */\n      0x00\n        /* \"#utility.yul\":12941:12959   */\n      0xffffffffffffffff\n        /* \"#utility.yul\":12934:12939   */\n      dup3\n        /* \"#utility.yul\":12930:12960   */\n      and\n        /* \"#utility.yul\":12919:12960   */\n      swap1\n      pop\n        /* \"#utility.yul\":12865:12966   */\n      swap2\n      swap1\n      pop\n      jump\t// out\n        /* \"#utility.yul\":12972:13128   */\n    tag_131:\n        /* \"#utility.yul\":13029:13038   */\n      0x00\n        /* \"#utility.yul\":13062:13122   */\n      tag_280\n        /* \"#utility.yul\":13079:13121   */\n      tag_281\n        /* \"#utility.yul\":13088:13120   */\n      tag_282\n        /* \"#utility.yul\":13114:13119   */\n      dup5\n        /* \"#utility.yul\":13088:13120   */\n      tag_129\n      jump\t// in\n    tag_282:\n        /* \"#utility.yul\":13079:13121   */\n      tag_118\n      jump\t// in\n    tag_281:\n        /* \"#utility.yul\":13062:13122   */\n      tag_130\n      jump\t// in\n    tag_280:\n        /* \"#utility.yul\":13049:13122   */\n      swap1\n      pop\n        /* \"#utility.yul\":12972:13128   */\n      swap2\n      swap1\n      pop\n      jump\t// out\n        /* \"#utility.yul\":13134:13279   */\n    tag_132:\n        /* \"#utility.yul\":13228:13272   */\n      tag_284\n        /* \"#utility.yul\":13266:13271   */\n      dup2\n        /* \"#utility.yul\":13228:13272   */\n      tag_131\n      jump\t// in\n    tag_284:\n        /* \"#utility.yul\":13223:13226   */\n      dup3\n        /* \"#utility.yul\":13216:13273   */\n      mstore\n        /* \"#utility.yul\":13134:13279   */\n      pop\n      pop\n      jump\t// out\n        /* \"#utility.yul\":13285:13521   */\n    tag_72:\n        /* \"#utility.yul\":13385:13389   */\n      0x00\n        /* \"#utility.yul\":13423:13425   */\n      0x20\n        /* \"#utility.yul\":13412:13421   */\n      dup3\n        /* \"#utility.yul\":13408:13426   */\n      add\n        /* \"#utility.yul\":13400:13426   */\n      swap1\n      pop\n        /* \"#utility.yul\":13436:13514   */\n      tag_286\n        /* \"#utility.yul\":13511:13512   */\n      0x00\n        /* \"#utility.yul\":13500:13509   */\n      dup4\n        /* \"#utility.yul\":13496:13513   */\n      add\n        /* \"#utility.yul\":13487:13493   */\n      dup5\n        /* \"#utility.yul\":13436:13514   */\n      tag_132\n      jump\t// in\n    tag_286:\n        /* \"#utility.yul\":13285:13521   */\n      swap3\n      swap2\n      pop\n      pop\n      jump\t// out\n        /* \"#utility.yul\":13527:13707   */\n    tag_133:\n        /* \"#utility.yul\":13575:13652   */\n      0x4e487b7100000000000000000000000000000000000000000000000000000000\n        /* \"#utility.yul\":13572:13573   */\n      0x00\n        /* \"#utility.yul\":13565:13653   */\n      mstore\n        /* \"#utility.yul\":13672:13676   */\n      0x11\n        /* \"#utility.yul\":13669:13670   */\n      0x04\n        /* \"#utility.yul\":13662:13677   */\n      mstore\n        /* \"#utility.yul\":13696:13700   */\n      0x24\n        /* \"#utility.yul\":13693:13694   */\n      0x00\n        /* \"#utility.yul\":13686:13701   */\n      revert\n        /* \"#utility.yul\":13713:13946   */\n    tag_79:\n        /* \"#utility.yul\":13752:13755   */\n      0x00\n        /* \"#utility.yul\":13775:13799   */\n      tag_289\n        /* \"#utility.yul\":13793:13798   */\n      dup3\n        /* \"#utility.yul\":13775:13799   */\n      tag_87\n      jump\t// in\n    tag_289:\n        /* \"#utility.yul\":13766:13799   */\n      swap2\n      pop\n        /* \"#utility.yul\":13821:13887   */\n      0xffffffffffffffffffffffffffffffffffffffffffffffffffffffffffffffff\n        /* \"#utility.yul\":13814:13819   */\n      dup3\n        /* \"#utility.yul\":13811:13888   */\n      sub\n        /* \"#utility.yul\":13808:13911   */\n      tag_290\n      jumpi\n        /* \"#utility.yul\":13891:13909   */\n      tag_291\n      tag_133\n      jump\t// in\n    tag_291:\n        /* \"#utility.yul\":13808:13911   */\n    tag_290:\n        /* \"#utility.yul\":13938:13939   */\n      0x01\n        /* \"#utility.yul\":13931:13936   */\n      dup3\n        /* \"#utility.yul\":13927:13940   */\n      add\n        /* \"#utility.yul\":13920:13940   */\n      swap1\n      pop\n        /* \"#utility.yul\":13713:13946   */\n      swap2\n      swap1\n      pop\n      jump\t// out\n\n    auxdata: 0xa26469706673582212202b900172551fba573bd1c0d3a8f0b60651e691821509a3a478f8aef22dfd8f1d64736f6c634300081a0033\n}\n",
				"bytecode": {
					"linkReferences": {},
					"object": "6080604052348015600e575f80fd5b5061113d8061001c5f395ff3fe608060405234801561000f575f80fd5b506004361061007b575f3560e01c8063970d051311610059578063970d0513146100e9578063c4d66de814610119578063c8f11ee114610135578063d43c9971146101515761007b565b80630178fe3f1461007f57806321fcc185146100af57806389a8e2a7146100cd575b5f80fd5b610099600480360381019061009491906109e8565b610181565b6040516100a69190610a83565b60405180910390f35b6100b76102e6565b6040516100c49190610ae2565b60405180910390f35b6100e760048036038101906100e29190610b5c565b61030b565b005b61010360048036038101906100fe91906109e8565b61049c565b6040516101109190610ae2565b60405180910390f35b610133600480360381019061012e9190610be3565b6104cc565b005b61014f600480360381019061014a9190610c0e565b6106e9565b005b61016b60048036038101906101669190610be3565b6108f3565b6040516101789190610d10565b60405180910390f35b606060045f9054906101000a900473ffffffffffffffffffffffffffffffffffffffff1673ffffffffffffffffffffffffffffffffffffffff163373ffffffffffffffffffffffffffffffffffffffff1614610209576040517f57b865e000000000000000000000000000000000000000000000000000000000815260040160405180910390fd5b5f805f8481526020019081526020015f20805461022590610d5d565b80601f016020809104026020016040519081016040528092919081815260200182805461025190610d5d565b801561029c5780601f106102735761010080835404028352916020019161029c565b820191905f5260205f20905b81548152906001019060200180831161027f57829003601f168201915b505050505090505f8151036102dd576040517f08a3a12b00000000000000000000000000000000000000000000000000000000815260040160405180910390fd5b80915050919050565b60045f9054906101000a900473ffffffffffffffffffffffffffffffffffffffff1681565b823373ffffffffffffffffffffffffffffffffffffffff1660025f8381526020019081526020015f205f9054906101000a900473ffffffffffffffffffffffffffffffffffffffff1673ffffffffffffffffffffffffffffffffffffffff16146103a1576040517fea8e4eb500000000000000000000000000000000000000000000000000000000815260040160405180910390fd5b5f805f8681526020019081526020015f2080546103bd90610d5d565b9050036103f6576040517f08a3a12b00000000000000000000000000000000000000000000000000000000815260040160405180910390fd5b5f8383905003610432576040517f4722cb3400000000000000000000000000000000000000000000000000000000815260040160405180910390fd5b82825f808781526020019081526020015f209182610451929190610f61565b50833373ffffffffffffffffffffffffffffffffffffffff167f8aa8bd4e43dc6bb61a5221865a01a65c13e1171dfe8c9ba47c09cf85c07435a160405160405180910390a350505050565b6002602052805f5260405f205f915054906101000a900473ffffffffffffffffffffffffffffffffffffffff1681565b5f6104d5610986565b90505f815f0160089054906101000a900460ff161590505f825f015f9054906101000a900467ffffffffffffffff1690505f808267ffffffffffffffff1614801561051d5750825b90505f60018367ffffffffffffffff1614801561055057505f3073ffffffffffffffffffffffffffffffffffffffff163b145b90508115801561055e575080155b15610595576040517ff92ee8a900000000000000000000000000000000000000000000000000000000815260040160405180910390fd5b6001855f015f6101000a81548167ffffffffffffffff021916908367ffffffffffffffff16021790555083156105e2576001855f0160086101000a81548160ff0219169083151502179055505b5f73ffffffffffffffffffffffffffffffffffffffff168673ffffffffffffffffffffffffffffffffffffffff1603610647576040517f57b865e000000000000000000000000000000000000000000000000000000000815260040160405180910390fd5b8560045f6101000a81548173ffffffffffffffffffffffffffffffffffffffff021916908373ffffffffffffffffffffffffffffffffffffffff16021790555083156106e1575f855f0160086101000a81548160ff0219169083151502179055507fc7f505b2f371ae2175ee4913f4499e1f2633a7b5936321eed1cdaeb6115181d260016040516106d8919061107a565b60405180910390a15b505050505050565b5f73ffffffffffffffffffffffffffffffffffffffff1660025f60035481526020019081526020015f205f9054906101000a900473ffffffffffffffffffffffffffffffffffffffff1673ffffffffffffffffffffffffffffffffffffffff1614610780576040517fddeca80400000000000000000000000000000000000000000000000000000000815260040160405180910390fd5b5f82829050036107bc576040517f4722cb3400000000000000000000000000000000000000000000000000000000815260040160405180910390fd5b81815f8060035481526020019081526020015f2091826107dd929190610f61565b5060015f3373ffffffffffffffffffffffffffffffffffffffff1673ffffffffffffffffffffffffffffffffffffffff1681526020019081526020015f20600354908060018154018082558091505060019003905f5260205f20015f90919091909150553360025f60035481526020019081526020015f205f6101000a81548173ffffffffffffffffffffffffffffffffffffffff021916908373ffffffffffffffffffffffffffffffffffffffff1602179055506003543373ffffffffffffffffffffffffffffffffffffffff167f4b8f205ad1001640fd10229d060967f465a58c68ae732e6aa5120bfbdf0dd97560405160405180910390a360035f8154809291906108ea906110c0565b91905055505050565b606060015f8373ffffffffffffffffffffffffffffffffffffffff1673ffffffffffffffffffffffffffffffffffffffff1681526020019081526020015f2080548060200260200160405190810160405280929190818152602001828054801561097a57602002820191905f5260205f20905b815481526020019060010190808311610966575b50505050509050919050565b5f7ff0c57e16840df040f15088dc2f81fe391c3923bec73e23a9662efc9c229c6a00905090565b5f80fd5b5f80fd5b5f819050919050565b6109c7816109b5565b81146109d1575f80fd5b50565b5f813590506109e2816109be565b92915050565b5f602082840312156109fd576109fc6109ad565b5b5f610a0a848285016109d4565b91505092915050565b5f81519050919050565b5f82825260208201905092915050565b8281835e5f83830152505050565b5f601f19601f8301169050919050565b5f610a5582610a13565b610a5f8185610a1d565b9350610a6f818560208601610a2d565b610a7881610a3b565b840191505092915050565b5f6020820190508181035f830152610a9b8184610a4b565b905092915050565b5f73ffffffffffffffffffffffffffffffffffffffff82169050919050565b5f610acc82610aa3565b9050919050565b610adc81610ac2565b82525050565b5f602082019050610af55f830184610ad3565b92915050565b5f80fd5b5f80fd5b5f80fd5b5f8083601f840112610b1c57610b1b610afb565b5b8235905067ffffffffffffffff811115610b3957610b38610aff565b5b602083019150836001820283011115610b5557610b54610b03565b5b9250929050565b5f805f60408486031215610b7357610b726109ad565b5b5f610b80868287016109d4565b935050602084013567ffffffffffffffff811115610ba157610ba06109b1565b5b610bad86828701610b07565b92509250509250925092565b610bc281610ac2565b8114610bcc575f80fd5b50565b5f81359050610bdd81610bb9565b92915050565b5f60208284031215610bf857610bf76109ad565b5b5f610c0584828501610bcf565b91505092915050565b5f8060208385031215610c2457610c236109ad565b5b5f83013567ffffffffffffffff811115610c4157610c406109b1565b5b610c4d85828601610b07565b92509250509250929050565b5f81519050919050565b5f82825260208201905092915050565b5f819050602082019050919050565b610c8b816109b5565b82525050565b5f610c9c8383610c82565b60208301905092915050565b5f602082019050919050565b5f610cbe82610c59565b610cc88185610c63565b9350610cd383610c73565b805f5b83811015610d03578151610cea8882610c91565b9750610cf583610ca8565b925050600181019050610cd6565b5085935050505092915050565b5f6020820190508181035f830152610d288184610cb4565b905092915050565b7f4e487b71000000000000000000000000000000000000000000000000000000005f52602260045260245ffd5b5f6002820490506001821680610d7457607f821691505b602082108103610d8757610d86610d30565b5b50919050565b5f82905092915050565b7f4e487b71000000000000000000000000000000000000000000000000000000005f52604160045260245ffd5b5f819050815f5260205f209050919050565b5f6020601f8301049050919050565b5f82821b905092915050565b5f60088302610e207fffffffffffffffffffffffffffffffffffffffffffffffffffffffffffffffff82610de5565b610e2a8683610de5565b95508019841693508086168417925050509392505050565b5f819050919050565b5f610e65610e60610e5b846109b5565b610e42565b6109b5565b9050919050565b5f819050919050565b610e7e83610e4b565b610e92610e8a82610e6c565b848454610df1565b825550505050565b5f90565b610ea6610e9a565b610eb1818484610e75565b505050565b5b81811015610ed457610ec95f82610e9e565b600181019050610eb7565b5050565b601f821115610f1957610eea81610dc4565b610ef384610dd6565b81016020851015610f02578190505b610f16610f0e85610dd6565b830182610eb6565b50505b505050565b5f82821c905092915050565b5f610f395f1984600802610f1e565b1980831691505092915050565b5f610f518383610f2a565b9150826002028217905092915050565b610f6b8383610d8d565b67ffffffffffffffff811115610f8457610f83610d97565b5b610f8e8254610d5d565b610f99828285610ed8565b5f601f831160018114610fc6575f8415610fb4578287013590505b610fbe8582610f46565b865550611025565b601f198416610fd486610dc4565b5f5b82811015610ffb57848901358255600182019150602085019450602081019050610fd6565b868310156110185784890135611014601f891682610f2a565b8355505b6001600288020188555050505b50505050505050565b5f819050919050565b5f67ffffffffffffffff82169050919050565b5f61106461105f61105a8461102e565b610e42565b611037565b9050919050565b6110748161104a565b82525050565b5f60208201905061108d5f83018461106b565b92915050565b7f4e487b71000000000000000000000000000000000000000000000000000000005f52601160045260245ffd5b5f6110ca826109b5565b91507fffffffffffffffffffffffffffffffffffffffffffffffffffffffffffffffff82036110fc576110fb611093565b5b60018201905091905056fea26469706673582212202b900172551fba573bd1c0d3a8f0b60651e691821509a3a478f8aef22dfd8f1d64736f6c634300081a0033",
					"opcodes": "PUSH1 0x80 PUSH1 0x40 MSTORE CALLVALUE DUP1 ISZERO PUSH1 0xE JUMPI PUSH0 DUP1 REVERT JUMPDEST POP PUSH2 0x113D DUP1 PUSH2 0x1C PUSH0 CODECOPY PUSH0 RETURN INVALID PUSH1 0x80 PUSH1 0x40 MSTORE CALLVALUE DUP1 ISZERO PUSH2 0xF JUMPI PUSH0 DUP1 REVERT JUMPDEST POP PUSH1 0x4 CALLDATASIZE LT PUSH2 0x7B JUMPI PUSH0 CALLDATALOAD PUSH1 0xE0 SHR DUP1 PUSH4 0x970D0513 GT PUSH2 0x59 JUMPI DUP1 PUSH4 0x970D0513 EQ PUSH2 0xE9 JUMPI DUP1 PUSH4 0xC4D66DE8 EQ PUSH2 0x119 JUMPI DUP1 PUSH4 0xC8F11EE1 EQ PUSH2 0x135 JUMPI DUP1 PUSH4 0xD43C9971 EQ PUSH2 0x151 JUMPI PUSH2 0x7B JUMP JUMPDEST DUP1 PUSH4 0x178FE3F EQ PUSH2 0x7F JUMPI DUP1 PUSH4 0x21FCC185 EQ PUSH2 0xAF JUMPI DUP1 PUSH4 0x89A8E2A7 EQ PUSH2 0xCD JUMPI JUMPDEST PUSH0 DUP1 REVERT JUMPDEST PUSH2 0x99 PUSH1 0x4 DUP1 CALLDATASIZE SUB DUP2 ADD SWAP1 PUSH2 0x94 SWAP2 SWAP1 PUSH2 0x9E8 JUMP JUMPDEST PUSH2 0x181 JUMP JUMPDEST PUSH1 0x40 MLOAD PUSH2 0xA6 SWAP2 SWAP1 PUSH2 0xA83 JUMP JUMPDEST PUSH1 0x40 MLOAD DUP1 SWAP2 SUB SWAP1 RETURN JUMPDEST PUSH2 0xB7 PUSH2 0x2E6 JUMP JUMPDEST PUSH1 0x40 MLOAD PUSH2 0xC4 SWAP2 SWAP1 PUSH2 0xAE2 JUMP JUMPDEST PUSH1 0x40 MLOAD DUP1 SWAP2 SUB SWAP1 RETURN JUMPDEST PUSH2 0xE7 PUSH1 0x4 DUP1 CALLDATASIZE SUB DUP2 ADD SWAP1 PUSH2 0xE2 SWAP2 SWAP1 PUSH2 0xB5C JUMP JUMPDEST PUSH2 0x30B JUMP JUMPDEST STOP JUMPDEST PUSH2 0x103 PUSH1 0x4 DUP1 CALLDATASIZE SUB DUP2 ADD SWAP1 PUSH2 0xFE SWAP2 SWAP1 PUSH2 0x9E8 JUMP JUMPDEST PUSH2 0x49C JUMP JUMPDEST PUSH1 0x40 MLOAD PUSH2 0x110 SWAP2 SWAP1 PUSH2 0xAE2 JUMP JUMPDEST PUSH1 0x40 MLOAD DUP1 SWAP2 SUB SWAP1 RETURN JUMPDEST PUSH2 0x133 PUSH1 0x4 DUP1 CALLDATASIZE SUB DUP2 ADD SWAP1 PUSH2 0x12E SWAP2 SWAP1 PUSH2 0xBE3 JUMP JUMPDEST PUSH2 0x4CC JUMP JUMPDEST STOP JUMPDEST PUSH2 0x14F PUSH1 0x4 DUP1 CALLDATASIZE SUB DUP2 ADD SWAP1 PUSH2 0x14A SWAP2 SWAP1 PUSH2 0xC0E JUMP JUMPDEST PUSH2 0x6E9 JUMP JUMPDEST STOP JUMPDEST PUSH2 0x16B PUSH1 0x4 DUP1 CALLDATASIZE SUB DUP2 ADD SWAP1 PUSH2 0x166 SWAP2 SWAP1 PUSH2 0xBE3 JUMP JUMPDEST PUSH2 0x8F3 JUMP JUMPDEST PUSH1 0x40 MLOAD PUSH2 0x178 SWAP2 SWAP1 PUSH2 0xD10 JUMP JUMPDEST PUSH1 0x40 MLOAD DUP1 SWAP2 SUB SWAP1 RETURN JUMPDEST PUSH1 0x60 PUSH1 0x4 PUSH0 SWAP1 SLOAD SWAP1 PUSH2 0x100 EXP SWAP1 DIV PUSH20 0xFFFFFFFFFFFFFFFFFFFFFFFFFFFFFFFFFFFFFFFF AND PUSH20 0xFFFFFFFFFFFFFFFFFFFFFFFFFFFFFFFFFFFFFFFF AND CALLER PUSH20 0xFFFFFFFFFFFFFFFFFFFFFFFFFFFFFFFFFFFFFFFF AND EQ PUSH2 0x209 JUMPI PUSH1 0x40 MLOAD PUSH32 0x57B865E000000000000000000000000000000000000000000000000000000000 DUP2 MSTORE PUSH1 0x4 ADD PUSH1 0x40 MLOAD DUP1 SWAP2 SUB SWAP1 REVERT JUMPDEST PUSH0 DUP1 PUSH0 DUP5 DUP2 MSTORE PUSH1 0x20 ADD SWAP1 DUP2 MSTORE PUSH1 0x20 ADD PUSH0 KECCAK256 DUP1 SLOAD PUSH2 0x225 SWAP1 PUSH2 0xD5D JUMP JUMPDEST DUP1 PUSH1 0x1F ADD PUSH1 0x20 DUP1 SWAP2 DIV MUL PUSH1 0x20 ADD PUSH1 0x40 MLOAD SWAP1 DUP2 ADD PUSH1 0x40 MSTORE DUP1 SWAP3 SWAP2 SWAP1 DUP2 DUP2 MSTORE PUSH1 0x20 ADD DUP3 DUP1 SLOAD PUSH2 0x251 SWAP1 PUSH2 0xD5D JUMP JUMPDEST DUP1 ISZERO PUSH2 0x29C JUMPI DUP1 PUSH1 0x1F LT PUSH2 0x273 JUMPI PUSH2 0x100 DUP1 DUP4 SLOAD DIV MUL DUP4 MSTORE SWAP2 PUSH1 0x20 ADD SWAP2 PUSH2 0x29C JUMP JUMPDEST DUP3 ADD SWAP2 SWAP1 PUSH0 MSTORE PUSH1 0x20 PUSH0 KECCAK256 SWAP1 JUMPDEST DUP2 SLOAD DUP2 MSTORE SWAP1 PUSH1 0x1 ADD SWAP1 PUSH1 0x20 ADD DUP1 DUP4 GT PUSH2 0x27F JUMPI DUP3 SWAP1 SUB PUSH1 0x1F AND DUP3 ADD SWAP2 JUMPDEST POP POP POP POP POP SWAP1 POP PUSH0 DUP2 MLOAD SUB PUSH2 0x2DD JUMPI PUSH1 0x40 MLOAD PUSH32 0x8A3A12B00000000000000000000000000000000000000000000000000000000 DUP2 MSTORE PUSH1 0x4 ADD PUSH1 0x40 MLOAD DUP1 SWAP2 SUB SWAP1 REVERT JUMPDEST DUP1 SWAP2 POP POP SWAP2 SWAP1 POP JUMP JUMPDEST PUSH1 0x4 PUSH0 SWAP1 SLOAD SWAP1 PUSH2 0x100 EXP SWAP1 DIV PUSH20 0xFFFFFFFFFFFFFFFFFFFFFFFFFFFFFFFFFFFFFFFF AND DUP2 JUMP JUMPDEST DUP3 CALLER PUSH20 0xFFFFFFFFFFFFFFFFFFFFFFFFFFFFFFFFFFFFFFFF AND PUSH1 0x2 PUSH0 DUP4 DUP2 MSTORE PUSH1 0x20 ADD SWAP1 DUP2 MSTORE PUSH1 0x20 ADD PUSH0 KECCAK256 PUSH0 SWAP1 SLOAD SWAP1 PUSH2 0x100 EXP SWAP1 DIV PUSH20 0xFFFFFFFFFFFFFFFFFFFFFFFFFFFFFFFFFFFFFFFF AND PUSH20 0xFFFFFFFFFFFFFFFFFFFFFFFFFFFFFFFFFFFFFFFF AND EQ PUSH2 0x3A1 JUMPI PUSH1 0x40 MLOAD PUSH32 0xEA8E4EB500000000000000000000000000000000000000000000000000000000 DUP2 MSTORE PUSH1 0x4 ADD PUSH1 0x40 MLOAD DUP1 SWAP2 SUB SWAP1 REVERT JUMPDEST PUSH0 DUP1 PUSH0 DUP7 DUP2 MSTORE PUSH1 0x20 ADD SWAP1 DUP2 MSTORE PUSH1 0x20 ADD PUSH0 KECCAK256 DUP1 SLOAD PUSH2 0x3BD SWAP1 PUSH2 0xD5D JUMP JUMPDEST SWAP1 POP SUB PUSH2 0x3F6 JUMPI PUSH1 0x40 MLOAD PUSH32 0x8A3A12B00000000000000000000000000000000000000000000000000000000 DUP2 MSTORE PUSH1 0x4 ADD PUSH1 0x40 MLOAD DUP1 SWAP2 SUB SWAP1 REVERT JUMPDEST PUSH0 DUP4 DUP4 SWAP1 POP SUB PUSH2 0x432 JUMPI PUSH1 0x40 MLOAD PUSH32 0x4722CB3400000000000000000000000000000000000000000000000000000000 DUP2 MSTORE PUSH1 0x4 ADD PUSH1 0x40 MLOAD DUP1 SWAP2 SUB SWAP1 REVERT JUMPDEST DUP3 DUP3 PUSH0 DUP1 DUP8 DUP2 MSTORE PUSH1 0x20 ADD SWAP1 DUP2 MSTORE PUSH1 0x20 ADD PUSH0 KECCAK256 SWAP2 DUP3 PUSH2 0x451 SWAP3 SWAP2 SWAP1 PUSH2 0xF61 JUMP JUMPDEST POP DUP4 CALLER PUSH20 0xFFFFFFFFFFFFFFFFFFFFFFFFFFFFFFFFFFFFFFFF AND PUSH32 0x8AA8BD4E43DC6BB61A5221865A01A65C13E1171DFE8C9BA47C09CF85C07435A1 PUSH1 0x40 MLOAD PUSH1 0x40 MLOAD DUP1 SWAP2 SUB SWAP1 LOG3 POP POP POP POP JUMP JUMPDEST PUSH1 0x2 PUSH1 0x20 MSTORE DUP1 PUSH0 MSTORE PUSH1 0x40 PUSH0 KECCAK256 PUSH0 SWAP2 POP SLOAD SWAP1 PUSH2 0x100 EXP SWAP1 DIV PUSH20 0xFFFFFFFFFFFFFFFFFFFFFFFFFFFFFFFFFFFFFFFF AND DUP2 JUMP JUMPDEST PUSH0 PUSH2 0x4D5 PUSH2 0x986 JUMP JUMPDEST SWAP1 POP PUSH0 DUP2 PUSH0 ADD PUSH1 0x8 SWAP1 SLOAD SWAP1 PUSH2 0x100 EXP SWAP1 DIV PUSH1 0xFF AND ISZERO SWAP1 POP PUSH0 DUP3 PUSH0 ADD PUSH0 SWAP1 SLOAD SWAP1 PUSH2 0x100 EXP SWAP1 DIV PUSH8 0xFFFFFFFFFFFFFFFF AND SWAP1 POP PUSH0 DUP1 DUP3 PUSH8 0xFFFFFFFFFFFFFFFF AND EQ DUP1 ISZERO PUSH2 0x51D JUMPI POP DUP3 JUMPDEST SWAP1 POP PUSH0 PUSH1 0x1 DUP4 PUSH8 0xFFFFFFFFFFFFFFFF AND EQ DUP1 ISZERO PUSH2 0x550 JUMPI POP PUSH0 ADDRESS PUSH20 0xFFFFFFFFFFFFFFFFFFFFFFFFFFFFFFFFFFFFFFFF AND EXTCODESIZE EQ JUMPDEST SWAP1 POP DUP2 ISZERO DUP1 ISZERO PUSH2 0x55E JUMPI POP DUP1 ISZERO JUMPDEST ISZERO PUSH2 0x595 JUMPI PUSH1 0x40 MLOAD PUSH32 0xF92EE8A900000000000000000000000000000000000000000000000000000000 DUP2 MSTORE PUSH1 0x4 ADD PUSH1 0x40 MLOAD DUP1 SWAP2 SUB SWAP1 REVERT JUMPDEST PUSH1 0x1 DUP6 PUSH0 ADD PUSH0 PUSH2 0x100 EXP DUP2 SLOAD DUP2 PUSH8 0xFFFFFFFFFFFFFFFF MUL NOT AND SWAP1 DUP4 PUSH8 0xFFFFFFFFFFFFFFFF AND MUL OR SWAP1 SSTORE POP DUP4 ISZERO PUSH2 0x5E2 JUMPI PUSH1 0x1 DUP6 PUSH0 ADD PUSH1 0x8 PUSH2 0x100 EXP DUP2 SLOAD DUP2 PUSH1 0xFF MUL NOT AND SWAP1 DUP4 ISZERO ISZERO MUL OR SWAP1 SSTORE POP JUMPDEST PUSH0 PUSH20 0xFFFFFFFFFFFFFFFFFFFFFFFFFFFFFFFFFFFFFFFF AND DUP7 PUSH20 0xFFFFFFFFFFFFFFFFFFFFFFFFFFFFFFFFFFFFFFFF AND SUB PUSH2 0x647 JUMPI PUSH1 0x40 MLOAD PUSH32 0x57B865E000000000000000000000000000000000000000000000000000000000 DUP2 MSTORE PUSH1 0x4 ADD PUSH1 0x40 MLOAD DUP1 SWAP2 SUB SWAP1 REVERT JUMPDEST DUP6 PUSH1 0x4 PUSH0 PUSH2 0x100 EXP DUP2 SLOAD DUP2 PUSH20 0xFFFFFFFFFFFFFFFFFFFFFFFFFFFFFFFFFFFFFFFF MUL NOT AND SWAP1 DUP4 PUSH20 0xFFFFFFFFFFFFFFFFFFFFFFFFFFFFFFFFFFFFFFFF AND MUL OR SWAP1 SSTORE POP DUP4 ISZERO PUSH2 0x6E1 JUMPI PUSH0 DUP6 PUSH0 ADD PUSH1 0x8 PUSH2 0x100 EXP DUP2 SLOAD DUP2 PUSH1 0xFF MUL NOT AND SWAP1 DUP4 ISZERO ISZERO MUL OR SWAP1 SSTORE POP PUSH32 0xC7F505B2F371AE2175EE4913F4499E1F2633A7B5936321EED1CDAEB6115181D2 PUSH1 0x1 PUSH1 0x40 MLOAD PUSH2 0x6D8 SWAP2 SWAP1 PUSH2 0x107A JUMP JUMPDEST PUSH1 0x40 MLOAD DUP1 SWAP2 SUB SWAP1 LOG1 JUMPDEST POP POP POP POP POP POP JUMP JUMPDEST PUSH0 PUSH20 0xFFFFFFFFFFFFFFFFFFFFFFFFFFFFFFFFFFFFFFFF AND PUSH1 0x2 PUSH0 PUSH1 0x3 SLOAD DUP2 MSTORE PUSH1 0x20 ADD SWAP1 DUP2 MSTORE PUSH1 0x20 ADD PUSH0 KECCAK256 PUSH0 SWAP1 SLOAD SWAP1 PUSH2 0x100 EXP SWAP1 DIV PUSH20 0xFFFFFFFFFFFFFFFFFFFFFFFFFFFFFFFFFFFFFFFF AND PUSH20 0xFFFFFFFFFFFFFFFFFFFFFFFFFFFFFFFFFFFFFFFF AND EQ PUSH2 0x780 JUMPI PUSH1 0x40 MLOAD PUSH32 0xDDECA80400000000000000000000000000000000000000000000000000000000 DUP2 MSTORE PUSH1 0x4 ADD PUSH1 0x40 MLOAD DUP1 SWAP2 SUB SWAP1 REVERT JUMPDEST PUSH0 DUP3 DUP3 SWAP1 POP SUB PUSH2 0x7BC JUMPI PUSH1 0x40 MLOAD PUSH32 0x4722CB3400000000000000000000000000000000000000000000000000000000 DUP2 MSTORE PUSH1 0x4 ADD PUSH1 0x40 MLOAD DUP1 SWAP2 SUB SWAP1 REVERT JUMPDEST DUP2 DUP2 PUSH0 DUP1 PUSH1 0x3 SLOAD DUP2 MSTORE PUSH1 0x20 ADD SWAP1 DUP2 MSTORE PUSH1 0x20 ADD PUSH0 KECCAK256 SWAP2 DUP3 PUSH2 0x7DD SWAP3 SWAP2 SWAP1 PUSH2 0xF61 JUMP JUMPDEST POP PUSH1 0x1 PUSH0 CALLER PUSH20 0xFFFFFFFFFFFFFFFFFFFFFFFFFFFFFFFFFFFFFFFF AND PUSH20 0xFFFFFFFFFFFFFFFFFFFFFFFFFFFFFFFFFFFFFFFF AND DUP2 MSTORE PUSH1 0x20 ADD SWAP1 DUP2 MSTORE PUSH1 0x20 ADD PUSH0 KECCAK256 PUSH1 0x3 SLOAD SWAP1 DUP1 PUSH1 0x1 DUP2 SLOAD ADD DUP1 DUP3 SSTORE DUP1 SWAP2 POP POP PUSH1 0x1 SWAP1 SUB SWAP1 PUSH0 MSTORE PUSH1 0x20 PUSH0 KECCAK256 ADD PUSH0 SWAP1 SWAP2 SWAP1 SWAP2 SWAP1 SWAP2 POP SSTORE CALLER PUSH1 0x2 PUSH0 PUSH1 0x3 SLOAD DUP2 MSTORE PUSH1 0x20 ADD SWAP1 DUP2 MSTORE PUSH1 0x20 ADD PUSH0 KECCAK256 PUSH0 PUSH2 0x100 EXP DUP2 SLOAD DUP2 PUSH20 0xFFFFFFFFFFFFFFFFFFFFFFFFFFFFFFFFFFFFFFFF MUL NOT AND SWAP1 DUP4 PUSH20 0xFFFFFFFFFFFFFFFFFFFFFFFFFFFFFFFFFFFFFFFF AND MUL OR SWAP1 SSTORE POP PUSH1 0x3 SLOAD CALLER PUSH20 0xFFFFFFFFFFFFFFFFFFFFFFFFFFFFFFFFFFFFFFFF AND PUSH32 0x4B8F205AD1001640FD10229D060967F465A58C68AE732E6AA5120BFBDF0DD975 PUSH1 0x40 MLOAD PUSH1 0x40 MLOAD DUP1 SWAP2 SUB SWAP1 LOG3 PUSH1 0x3 PUSH0 DUP2 SLOAD DUP1 SWAP3 SWAP2 SWAP1 PUSH2 0x8EA SWAP1 PUSH2 0x10C0 JUMP JUMPDEST SWAP2 SWAP1 POP SSTORE POP POP POP JUMP JUMPDEST PUSH1 0x60 PUSH1 0x1 PUSH0 DUP4 PUSH20 0xFFFFFFFFFFFFFFFFFFFFFFFFFFFFFFFFFFFFFFFF AND PUSH20 0xFFFFFFFFFFFFFFFFFFFFFFFFFFFFFFFFFFFFFFFF AND DUP2 MSTORE PUSH1 0x20 ADD SWAP1 DUP2 MSTORE PUSH1 0x20 ADD PUSH0 KECCAK256 DUP1 SLOAD DUP1 PUSH1 0x20 MUL PUSH1 0x20 ADD PUSH1 0x40 MLOAD SWAP1 DUP2 ADD PUSH1 0x40 MSTORE DUP1 SWAP3 SWAP2 SWAP1 DUP2 DUP2 MSTORE PUSH1 0x20 ADD DUP3 DUP1 SLOAD DUP1 ISZERO PUSH2 0x97A JUMPI PUSH1 0x20 MUL DUP3 ADD SWAP2 SWAP1 PUSH0 MSTORE PUSH1 0x20 PUSH0 KECCAK256 SWAP1 JUMPDEST DUP2 SLOAD DUP2 MSTORE PUSH1 0x20 ADD SWAP1 PUSH1 0x1 ADD SWAP1 DUP1 DUP4 GT PUSH2 0x966 JUMPI JUMPDEST POP POP POP POP POP SWAP1 POP SWAP2 SWAP1 POP JUMP JUMPDEST PUSH0 PUSH32 0xF0C57E16840DF040F15088DC2F81FE391C3923BEC73E23A9662EFC9C229C6A00 SWAP1 POP SWAP1 JUMP JUMPDEST PUSH0 DUP1 REVERT JUMPDEST PUSH0 DUP1 REVERT JUMPDEST PUSH0 DUP2 SWAP1 POP SWAP2 SWAP1 POP JUMP JUMPDEST PUSH2 0x9C7 DUP2 PUSH2 0x9B5 JUMP JUMPDEST DUP2 EQ PUSH2 0x9D1 JUMPI PUSH0 DUP1 REVERT JUMPDEST POP JUMP JUMPDEST PUSH0 DUP2 CALLDATALOAD SWAP1 POP PUSH2 0x9E2 DUP2 PUSH2 0x9BE JUMP JUMPDEST SWAP3 SWAP2 POP POP JUMP JUMPDEST PUSH0 PUSH1 0x20 DUP3 DUP5 SUB SLT ISZERO PUSH2 0x9FD JUMPI PUSH2 0x9FC PUSH2 0x9AD JUMP JUMPDEST JUMPDEST PUSH0 PUSH2 0xA0A DUP5 DUP3 DUP6 ADD PUSH2 0x9D4 JUMP JUMPDEST SWAP2 POP POP SWAP3 SWAP2 POP POP JUMP JUMPDEST PUSH0 DUP2 MLOAD SWAP1 POP SWAP2 SWAP1 POP JUMP JUMPDEST PUSH0 DUP3 DUP3 MSTORE PUSH1 0x20 DUP3 ADD SWAP1 POP SWAP3 SWAP2 POP POP JUMP JUMPDEST DUP3 DUP2 DUP4 MCOPY PUSH0 DUP4 DUP4 ADD MSTORE POP POP POP JUMP JUMPDEST PUSH0 PUSH1 0x1F NOT PUSH1 0x1F DUP4 ADD AND SWAP1 POP SWAP2 SWAP1 POP JUMP JUMPDEST PUSH0 PUSH2 0xA55 DUP3 PUSH2 0xA13 JUMP JUMPDEST PUSH2 0xA5F DUP2 DUP6 PUSH2 0xA1D JUMP JUMPDEST SWAP4 POP PUSH2 0xA6F DUP2 DUP6 PUSH1 0x20 DUP7 ADD PUSH2 0xA2D JUMP JUMPDEST PUSH2 0xA78 DUP2 PUSH2 0xA3B JUMP JUMPDEST DUP5 ADD SWAP2 POP POP SWAP3 SWAP2 POP POP JUMP JUMPDEST PUSH0 PUSH1 0x20 DUP3 ADD SWAP1 POP DUP2 DUP2 SUB PUSH0 DUP4 ADD MSTORE PUSH2 0xA9B DUP2 DUP5 PUSH2 0xA4B JUMP JUMPDEST SWAP1 POP SWAP3 SWAP2 POP POP JUMP JUMPDEST PUSH0 PUSH20 0xFFFFFFFFFFFFFFFFFFFFFFFFFFFFFFFFFFFFFFFF DUP3 AND SWAP1 POP SWAP2 SWAP1 POP JUMP JUMPDEST PUSH0 PUSH2 0xACC DUP3 PUSH2 0xAA3 JUMP JUMPDEST SWAP1 POP SWAP2 SWAP1 POP JUMP JUMPDEST PUSH2 0xADC DUP2 PUSH2 0xAC2 JUMP JUMPDEST DUP3 MSTORE POP POP JUMP JUMPDEST PUSH0 PUSH1 0x20 DUP3 ADD SWAP1 POP PUSH2 0xAF5 PUSH0 DUP4 ADD DUP5 PUSH2 0xAD3 JUMP JUMPDEST SWAP3 SWAP2 POP POP JUMP JUMPDEST PUSH0 DUP1 REVERT JUMPDEST PUSH0 DUP1 REVERT JUMPDEST PUSH0 DUP1 REVERT JUMPDEST PUSH0 DUP1 DUP4 PUSH1 0x1F DUP5 ADD SLT PUSH2 0xB1C JUMPI PUSH2 0xB1B PUSH2 0xAFB JUMP JUMPDEST JUMPDEST DUP3 CALLDATALOAD SWAP1 POP PUSH8 0xFFFFFFFFFFFFFFFF DUP2 GT ISZERO PUSH2 0xB39 JUMPI PUSH2 0xB38 PUSH2 0xAFF JUMP JUMPDEST JUMPDEST PUSH1 0x20 DUP4 ADD SWAP2 POP DUP4 PUSH1 0x1 DUP3 MUL DUP4 ADD GT ISZERO PUSH2 0xB55 JUMPI PUSH2 0xB54 PUSH2 0xB03 JUMP JUMPDEST JUMPDEST SWAP3 POP SWAP3 SWAP1 POP JUMP JUMPDEST PUSH0 DUP1 PUSH0 PUSH1 0x40 DUP5 DUP7 SUB SLT ISZERO PUSH2 0xB73 JUMPI PUSH2 0xB72 PUSH2 0x9AD JUMP JUMPDEST JUMPDEST PUSH0 PUSH2 0xB80 DUP7 DUP3 DUP8 ADD PUSH2 0x9D4 JUMP JUMPDEST SWAP4 POP POP PUSH1 0x20 DUP5 ADD CALLDATALOAD PUSH8 0xFFFFFFFFFFFFFFFF DUP2 GT ISZERO PUSH2 0xBA1 JUMPI PUSH2 0xBA0 PUSH2 0x9B1 JUMP JUMPDEST JUMPDEST PUSH2 0xBAD DUP7 DUP3 DUP8 ADD PUSH2 0xB07 JUMP JUMPDEST SWAP3 POP SWAP3 POP POP SWAP3 POP SWAP3 POP SWAP3 JUMP JUMPDEST PUSH2 0xBC2 DUP2 PUSH2 0xAC2 JUMP JUMPDEST DUP2 EQ PUSH2 0xBCC JUMPI PUSH0 DUP1 REVERT JUMPDEST POP JUMP JUMPDEST PUSH0 DUP2 CALLDATALOAD SWAP1 POP PUSH2 0xBDD DUP2 PUSH2 0xBB9 JUMP JUMPDEST SWAP3 SWAP2 POP POP JUMP JUMPDEST PUSH0 PUSH1 0x20 DUP3 DUP5 SUB SLT ISZERO PUSH2 0xBF8 JUMPI PUSH2 0xBF7 PUSH2 0x9AD JUMP JUMPDEST JUMPDEST PUSH0 PUSH2 0xC05 DUP5 DUP3 DUP6 ADD PUSH2 0xBCF JUMP JUMPDEST SWAP2 POP POP SWAP3 SWAP2 POP POP JUMP JUMPDEST PUSH0 DUP1 PUSH1 0x20 DUP4 DUP6 SUB SLT ISZERO PUSH2 0xC24 JUMPI PUSH2 0xC23 PUSH2 0x9AD JUMP JUMPDEST JUMPDEST PUSH0 DUP4 ADD CALLDATALOAD PUSH8 0xFFFFFFFFFFFFFFFF DUP2 GT ISZERO PUSH2 0xC41 JUMPI PUSH2 0xC40 PUSH2 0x9B1 JUMP JUMPDEST JUMPDEST PUSH2 0xC4D DUP6 DUP3 DUP7 ADD PUSH2 0xB07 JUMP JUMPDEST SWAP3 POP SWAP3 POP POP SWAP3 POP SWAP3 SWAP1 POP JUMP JUMPDEST PUSH0 DUP2 MLOAD SWAP1 POP SWAP2 SWAP1 POP JUMP JUMPDEST PUSH0 DUP3 DUP3 MSTORE PUSH1 0x20 DUP3 ADD SWAP1 POP SWAP3 SWAP2 POP POP JUMP JUMPDEST PUSH0 DUP2 SWAP1 POP PUSH1 0x20 DUP3 ADD SWAP1 POP SWAP2 SWAP1 POP JUMP JUMPDEST PUSH2 0xC8B DUP2 PUSH2 0x9B5 JUMP JUMPDEST DUP3 MSTORE POP POP JUMP JUMPDEST PUSH0 PUSH2 0xC9C DUP4 DUP4 PUSH2 0xC82 JUMP JUMPDEST PUSH1 0x20 DUP4 ADD SWAP1 POP SWAP3 SWAP2 POP POP JUMP JUMPDEST PUSH0 PUSH1 0x20 DUP3 ADD SWAP1 POP SWAP2 SWAP1 POP JUMP JUMPDEST PUSH0 PUSH2 0xCBE DUP3 PUSH2 0xC59 JUMP JUMPDEST PUSH2 0xCC8 DUP2 DUP6 PUSH2 0xC63 JUMP JUMPDEST SWAP4 POP PUSH2 0xCD3 DUP4 PUSH2 0xC73 JUMP JUMPDEST DUP1 PUSH0 JUMPDEST DUP4 DUP2 LT ISZERO PUSH2 0xD03 JUMPI DUP2 MLOAD PUSH2 0xCEA DUP9 DUP3 PUSH2 0xC91 JUMP JUMPDEST SWAP8 POP PUSH2 0xCF5 DUP4 PUSH2 0xCA8 JUMP JUMPDEST SWAP3 POP POP PUSH1 0x1 DUP2 ADD SWAP1 POP PUSH2 0xCD6 JUMP JUMPDEST POP DUP6 SWAP4 POP POP POP POP SWAP3 SWAP2 POP POP JUMP JUMPDEST PUSH0 PUSH1 0x20 DUP3 ADD SWAP1 POP DUP2 DUP2 SUB PUSH0 DUP4 ADD MSTORE PUSH2 0xD28 DUP2 DUP5 PUSH2 0xCB4 JUMP JUMPDEST SWAP1 POP SWAP3 SWAP2 POP POP JUMP JUMPDEST PUSH32 0x4E487B7100000000000000000000000000000000000000000000000000000000 PUSH0 MSTORE PUSH1 0x22 PUSH1 0x4 MSTORE PUSH1 0x24 PUSH0 REVERT JUMPDEST PUSH0 PUSH1 0x2 DUP3 DIV SWAP1 POP PUSH1 0x1 DUP3 AND DUP1 PUSH2 0xD74 JUMPI PUSH1 0x7F DUP3 AND SWAP2 POP JUMPDEST PUSH1 0x20 DUP3 LT DUP2 SUB PUSH2 0xD87 JUMPI PUSH2 0xD86 PUSH2 0xD30 JUMP JUMPDEST JUMPDEST POP SWAP2 SWAP1 POP JUMP JUMPDEST PUSH0 DUP3 SWAP1 POP SWAP3 SWAP2 POP POP JUMP JUMPDEST PUSH32 0x4E487B7100000000000000000000000000000000000000000000000000000000 PUSH0 MSTORE PUSH1 0x41 PUSH1 0x4 MSTORE PUSH1 0x24 PUSH0 REVERT JUMPDEST PUSH0 DUP2 SWAP1 POP DUP2 PUSH0 MSTORE PUSH1 0x20 PUSH0 KECCAK256 SWAP1 POP SWAP2 SWAP1 POP JUMP JUMPDEST PUSH0 PUSH1 0x20 PUSH1 0x1F DUP4 ADD DIV SWAP1 POP SWAP2 SWAP1 POP JUMP JUMPDEST PUSH0 DUP3 DUP3 SHL SWAP1 POP SWAP3 SWAP2 POP POP JUMP JUMPDEST PUSH0 PUSH1 0x8 DUP4 MUL PUSH2 0xE20 PUSH32 0xFFFFFFFFFFFFFFFFFFFFFFFFFFFFFFFFFFFFFFFFFFFFFFFFFFFFFFFFFFFFFFFF DUP3 PUSH2 0xDE5 JUMP JUMPDEST PUSH2 0xE2A DUP7 DUP4 PUSH2 0xDE5 JUMP JUMPDEST SWAP6 POP DUP1 NOT DUP5 AND SWAP4 POP DUP1 DUP7 AND DUP5 OR SWAP3 POP POP POP SWAP4 SWAP3 POP POP POP JUMP JUMPDEST PUSH0 DUP2 SWAP1 POP SWAP2 SWAP1 POP JUMP JUMPDEST PUSH0 PUSH2 0xE65 PUSH2 0xE60 PUSH2 0xE5B DUP5 PUSH2 0x9B5 JUMP JUMPDEST PUSH2 0xE42 JUMP JUMPDEST PUSH2 0x9B5 JUMP JUMPDEST SWAP1 POP SWAP2 SWAP1 POP JUMP JUMPDEST PUSH0 DUP2 SWAP1 POP SWAP2 SWAP1 POP JUMP JUMPDEST PUSH2 0xE7E DUP4 PUSH2 0xE4B JUMP JUMPDEST PUSH2 0xE92 PUSH2 0xE8A DUP3 PUSH2 0xE6C JUMP JUMPDEST DUP5 DUP5 SLOAD PUSH2 0xDF1 JUMP JUMPDEST DUP3 SSTORE POP POP POP POP JUMP JUMPDEST PUSH0 SWAP1 JUMP JUMPDEST PUSH2 0xEA6 PUSH2 0xE9A JUMP JUMPDEST PUSH2 0xEB1 DUP2 DUP5 DUP5 PUSH2 0xE75 JUMP JUMPDEST POP POP POP JUMP JUMPDEST JUMPDEST DUP2 DUP2 LT ISZERO PUSH2 0xED4 JUMPI PUSH2 0xEC9 PUSH0 DUP3 PUSH2 0xE9E JUMP JUMPDEST PUSH1 0x1 DUP2 ADD SWAP1 POP PUSH2 0xEB7 JUMP JUMPDEST POP POP JUMP JUMPDEST PUSH1 0x1F DUP3 GT ISZERO PUSH2 0xF19 JUMPI PUSH2 0xEEA DUP2 PUSH2 0xDC4 JUMP JUMPDEST PUSH2 0xEF3 DUP5 PUSH2 0xDD6 JUMP JUMPDEST DUP2 ADD PUSH1 0x20 DUP6 LT ISZERO PUSH2 0xF02 JUMPI DUP2 SWAP1 POP JUMPDEST PUSH2 0xF16 PUSH2 0xF0E DUP6 PUSH2 0xDD6 JUMP JUMPDEST DUP4 ADD DUP3 PUSH2 0xEB6 JUMP JUMPDEST POP POP JUMPDEST POP POP POP JUMP JUMPDEST PUSH0 DUP3 DUP3 SHR SWAP1 POP SWAP3 SWAP2 POP POP JUMP JUMPDEST PUSH0 PUSH2 0xF39 PUSH0 NOT DUP5 PUSH1 0x8 MUL PUSH2 0xF1E JUMP JUMPDEST NOT DUP1 DUP4 AND SWAP2 POP POP SWAP3 SWAP2 POP POP JUMP JUMPDEST PUSH0 PUSH2 0xF51 DUP4 DUP4 PUSH2 0xF2A JUMP JUMPDEST SWAP2 POP DUP3 PUSH1 0x2 MUL DUP3 OR SWAP1 POP SWAP3 SWAP2 POP POP JUMP JUMPDEST PUSH2 0xF6B DUP4 DUP4 PUSH2 0xD8D JUMP JUMPDEST PUSH8 0xFFFFFFFFFFFFFFFF DUP2 GT ISZERO PUSH2 0xF84 JUMPI PUSH2 0xF83 PUSH2 0xD97 JUMP JUMPDEST JUMPDEST PUSH2 0xF8E DUP3 SLOAD PUSH2 0xD5D JUMP JUMPDEST PUSH2 0xF99 DUP3 DUP3 DUP6 PUSH2 0xED8 JUMP JUMPDEST PUSH0 PUSH1 0x1F DUP4 GT PUSH1 0x1 DUP2 EQ PUSH2 0xFC6 JUMPI PUSH0 DUP5 ISZERO PUSH2 0xFB4 JUMPI DUP3 DUP8 ADD CALLDATALOAD SWAP1 POP JUMPDEST PUSH2 0xFBE DUP6 DUP3 PUSH2 0xF46 JUMP JUMPDEST DUP7 SSTORE POP PUSH2 0x1025 JUMP JUMPDEST PUSH1 0x1F NOT DUP5 AND PUSH2 0xFD4 DUP7 PUSH2 0xDC4 JUMP JUMPDEST PUSH0 JUMPDEST DUP3 DUP2 LT ISZERO PUSH2 0xFFB JUMPI DUP5 DUP10 ADD CALLDATALOAD DUP3 SSTORE PUSH1 0x1 DUP3 ADD SWAP2 POP PUSH1 0x20 DUP6 ADD SWAP5 POP PUSH1 0x20 DUP2 ADD SWAP1 POP PUSH2 0xFD6 JUMP JUMPDEST DUP7 DUP4 LT ISZERO PUSH2 0x1018 JUMPI DUP5 DUP10 ADD CALLDATALOAD PUSH2 0x1014 PUSH1 0x1F DUP10 AND DUP3 PUSH2 0xF2A JUMP JUMPDEST DUP4 SSTORE POP JUMPDEST PUSH1 0x1 PUSH1 0x2 DUP9 MUL ADD DUP9 SSTORE POP POP POP JUMPDEST POP POP POP POP POP POP POP JUMP JUMPDEST PUSH0 DUP2 SWAP1 POP SWAP2 SWAP1 POP JUMP JUMPDEST PUSH0 PUSH8 0xFFFFFFFFFFFFFFFF DUP3 AND SWAP1 POP SWAP2 SWAP1 POP JUMP JUMPDEST PUSH0 PUSH2 0x1064 PUSH2 0x105F PUSH2 0x105A DUP5 PUSH2 0x102E JUMP JUMPDEST PUSH2 0xE42 JUMP JUMPDEST PUSH2 0x1037 JUMP JUMPDEST SWAP1 POP SWAP2 SWAP1 POP JUMP JUMPDEST PUSH2 0x1074 DUP2 PUSH2 0x104A JUMP JUMPDEST DUP3 MSTORE POP POP JUMP JUMPDEST PUSH0 PUSH1 0x20 DUP3 ADD SWAP1 POP PUSH2 0x108D PUSH0 DUP4 ADD DUP5 PUSH2 0x106B JUMP JUMPDEST SWAP3 SWAP2 POP POP JUMP JUMPDEST PUSH32 0x4E487B7100000000000000000000000000000000000000000000000000000000 PUSH0 MSTORE PUSH1 0x11 PUSH1 0x4 MSTORE PUSH1 0x24 PUSH0 REVERT JUMPDEST PUSH0 PUSH2 0x10CA DUP3 PUSH2 0x9B5 JUMP JUMPDEST SWAP2 POP PUSH32 0xFFFFFFFFFFFFFFFFFFFFFFFFFFFFFFFFFFFFFFFFFFFFFFFFFFFFFFFFFFFFFFFF DUP3 SUB PUSH2 0x10FC JUMPI PUSH2 0x10FB PUSH2 0x1093 JUMP JUMPDEST JUMPDEST PUSH1 0x1 DUP3 ADD SWAP1 POP SWAP2 SWAP1 POP JUMP INVALID LOG2 PUSH5 0x6970667358 0x22 SLT KECCAK256 0x2B SWAP1 ADD PUSH19 0x551FBA573BD1C0D3A8F0B60651E691821509A3 LOG4 PUSH25 0xF8AEF22DFD8F1D64736F6C634300081A003300000000000000 "
				},
				"gasEstimates": {
					"creation": {
						"codeDepositCost": "882600",
						"executionCost": "914",
						"totalCost": "883514"
					},
					"external": {
						"accessControlContract()": "2531",
						"getData(uint256)": "infinite",
						"getSampleIdsByPatient(address)": "infinite",
						"initialize(address)": "106208",
						"registerData(string)": "infinite",
						"sampleIdToPatient(uint256)": "2827",
						"updateData(uint256,string)": "infinite"
					}
				},
				"methodIdentifiers": {
					"accessControlContract()": "21fcc185",
					"getData(uint256)": "0178fe3f",
					"getSampleIdsByPatient(address)": "d43c9971",
					"initialize(address)": "c4d66de8",
					"registerData(string)": "c8f11ee1",
					"sampleIdToPatient(uint256)": "970d0513",
					"updateData(uint256,string)": "89a8e2a7"
				}
			},
			"storageLayout": {
				"storage": [
					{
						"astId": 278,
						"contract": "contracts/DataStorage.sol:DataStorage",
						"label": "geneticDataBySampleId",
						"offset": 0,
						"slot": "0",
						"type": "t_mapping(t_uint256,t_string_storage)"
					},
					{
						"astId": 284,
						"contract": "contracts/DataStorage.sol:DataStorage",
						"label": "sampleIdsByPatient",
						"offset": 0,
						"slot": "1",
						"type": "t_mapping(t_address,t_array(t_uint256)dyn_storage)"
					},
					{
						"astId": 289,
						"contract": "contracts/DataStorage.sol:DataStorage",
						"label": "sampleIdToPatient",
						"offset": 0,
						"slot": "2",
						"type": "t_mapping(t_uint256,t_address)"
					},
					{
						"astId": 292,
						"contract": "contracts/DataStorage.sol:DataStorage",
						"label": "sampleID",
						"offset": 0,
						"slot": "3",
						"type": "t_uint256"
					},
					{
						"astId": 295,
						"contract": "contracts/DataStorage.sol:DataStorage",
						"label": "accessControlContract",
						"offset": 0,
						"slot": "4",
						"type": "t_address"
					}
				],
				"types": {
					"t_address": {
						"encoding": "inplace",
						"label": "address",
						"numberOfBytes": "20"
					},
					"t_array(t_uint256)dyn_storage": {
						"base": "t_uint256",
						"encoding": "dynamic_array",
						"label": "uint256[]",
						"numberOfBytes": "32"
					},
					"t_mapping(t_address,t_array(t_uint256)dyn_storage)": {
						"encoding": "mapping",
						"key": "t_address",
						"label": "mapping(address => uint256[])",
						"numberOfBytes": "32",
						"value": "t_array(t_uint256)dyn_storage"
					},
					"t_mapping(t_uint256,t_address)": {
						"encoding": "mapping",
						"key": "t_uint256",
						"label": "mapping(uint256 => address)",
						"numberOfBytes": "32",
						"value": "t_address"
					},
					"t_mapping(t_uint256,t_string_storage)": {
						"encoding": "mapping",
						"key": "t_uint256",
						"label": "mapping(uint256 => string)",
						"numberOfBytes": "32",
						"value": "t_string_storage"
					},
					"t_string_storage": {
						"encoding": "bytes",
						"label": "string",
						"numberOfBytes": "32"
					},
					"t_uint256": {
						"encoding": "inplace",
						"label": "uint256",
						"numberOfBytes": "32"
					}
				}
			},
			"userdoc": {
				"errors": {
					"AccessControlOnly()": [
						{
							"notice": "Error for unauthorized access by a non-AccessControl contract."
						}
					],
					"DataNotRegistered()": [
						{
							"notice": "Error for attempting to update data for a non-registered sample ID."
						}
					],
					"DataReferenceCannotBeEmpty()": [
						{
							"notice": "Error for providing an empty data reference."
						}
					],
					"NotAuthorized()": [
						{
							"notice": "Error for unauthorized access by a non-owner."
						}
					],
					"SampleAlreadyRegistered()": [
						{
							"notice": "Error for attempting to register an already registered sample ID."
						}
					]
				},
				"events": {
					"DataRegistered(address,uint256)": {
						"notice": "Emitted when genetic data is registered by a patient."
					},
					"DataUpdated(address,uint256)": {
						"notice": "Emitted when genetic data is updated by a patient."
					}
				},
				"kind": "user",
				"methods": {
					"accessControlContract()": {
						"notice": "The address of the AccessControl contract authorized to retrieve data."
					},
					"getData(uint256)": {
						"notice": "Retrieves the genetic data reference for a given sample ID."
					},
					"getSampleIdsByPatient(address)": {
						"notice": "Retrieves the sample IDs associated with a patient."
					},
					"initialize(address)": {
						"notice": "Initializes the contract with the AccessControl contract address."
					},
					"registerData(string)": {
						"notice": "Allows a patient to register their genetic data."
					},
					"sampleIdToPatient(uint256)": {
						"notice": "Mapping from sample ID to the patient who owns it."
					},
					"updateData(uint256,string)": {
						"notice": "Allows a patient to update their existing genetic data."
					}
				},
				"notice": "Manages the registration and storage of genetic data references for patients.",
				"version": 1
			}
		}
	}
}